{
  "address": "0x3f244A31A5278BD06172b91c0AD9eA5a4393Dbc9",
  "abi": [
    {
      "inputs": [
        {
          "internalType": "contract DNSSEC",
          "name": "_dnssec",
          "type": "address"
        },
        {
          "internalType": "contract PublicSuffixList",
          "name": "_suffixes",
          "type": "address"
        },
        {
          "internalType": "contract ENS",
          "name": "_ens",
          "type": "address"
        }
      ],
      "stateMutability": "nonpayable",
      "type": "constructor"
    },
    {
      "inputs": [],
      "name": "NoOwnerRecordFound",
      "type": "error"
    },
    {
      "inputs": [],
      "name": "StaleProof",
      "type": "error"
    },
    {
      "anonymous": false,
      "inputs": [
        {
          "indexed": true,
          "internalType": "bytes32",
          "name": "node",
          "type": "bytes32"
        },
        {
          "indexed": true,
          "internalType": "address",
          "name": "owner",
          "type": "address"
        },
        {
          "indexed": false,
          "internalType": "bytes",
          "name": "dnsname",
          "type": "bytes"
        },
        {
          "indexed": false,
          "internalType": "uint32",
          "name": "inception",
          "type": "uint32"
        }
      ],
      "name": "Claim",
      "type": "event"
    },
    {
      "anonymous": false,
      "inputs": [
        {
          "indexed": false,
          "internalType": "address",
          "name": "oracle",
          "type": "address"
        }
      ],
      "name": "NewOracle",
      "type": "event"
    },
    {
      "anonymous": false,
      "inputs": [
        {
          "indexed": false,
          "internalType": "address",
          "name": "suffixes",
          "type": "address"
        }
      ],
      "name": "NewPublicSuffixList",
      "type": "event"
    },
    {
      "inputs": [],
      "name": "ens",
      "outputs": [
        {
          "internalType": "contract ENS",
          "name": "",
          "type": "address"
        }
      ],
      "stateMutability": "view",
      "type": "function"
    },
    {
      "inputs": [
        {
          "internalType": "bytes32",
          "name": "",
          "type": "bytes32"
        }
      ],
      "name": "inceptions",
      "outputs": [
        {
          "internalType": "uint32",
          "name": "",
          "type": "uint32"
        }
      ],
      "stateMutability": "view",
      "type": "function"
    },
    {
      "inputs": [],
      "name": "oracle",
      "outputs": [
        {
          "internalType": "contract DNSSEC",
          "name": "",
          "type": "address"
        }
      ],
      "stateMutability": "view",
      "type": "function"
    },
    {
      "inputs": [
        {
          "internalType": "bytes",
          "name": "name",
          "type": "bytes"
        },
        {
          "components": [
            {
              "internalType": "bytes",
              "name": "rrset",
              "type": "bytes"
            },
            {
              "internalType": "bytes",
              "name": "sig",
              "type": "bytes"
            }
          ],
          "internalType": "struct DNSSEC.RRSetWithSignature[]",
          "name": "input",
          "type": "tuple[]"
        }
      ],
      "name": "proveAndClaim",
      "outputs": [],
      "stateMutability": "nonpayable",
      "type": "function"
    },
    {
      "inputs": [
        {
          "internalType": "bytes",
          "name": "name",
          "type": "bytes"
        },
        {
          "components": [
            {
              "internalType": "bytes",
              "name": "rrset",
              "type": "bytes"
            },
            {
              "internalType": "bytes",
              "name": "sig",
              "type": "bytes"
            }
          ],
          "internalType": "struct DNSSEC.RRSetWithSignature[]",
          "name": "input",
          "type": "tuple[]"
        },
        {
          "internalType": "address",
          "name": "resolver",
          "type": "address"
        },
        {
          "internalType": "address",
          "name": "addr",
          "type": "address"
        }
      ],
      "name": "proveAndClaimWithResolver",
      "outputs": [],
      "stateMutability": "nonpayable",
      "type": "function"
    },
    {
      "inputs": [
        {
          "internalType": "contract PublicSuffixList",
          "name": "_suffixes",
          "type": "address"
        }
      ],
      "name": "setPublicSuffixList",
      "outputs": [],
      "stateMutability": "nonpayable",
      "type": "function"
    },
    {
      "inputs": [],
      "name": "suffixes",
      "outputs": [
        {
          "internalType": "contract PublicSuffixList",
          "name": "",
          "type": "address"
        }
      ],
      "stateMutability": "view",
      "type": "function"
    },
    {
      "inputs": [
        {
          "internalType": "bytes4",
          "name": "interfaceID",
          "type": "bytes4"
        }
      ],
      "name": "supportsInterface",
      "outputs": [
        {
          "internalType": "bool",
          "name": "",
          "type": "bool"
        }
      ],
      "stateMutability": "pure",
      "type": "function"
    }
  ],
  "transactionHash": "0x73155c6939379231e8a9d3cdf6d9381ba099954df8af1ad0427d01032143e22e",
  "args": [
    "0x8DbE15c88F4a9294928FcE5E3efD60f4Aab2A8E3",
    "0x01D9570eF525748d42179cE1A12b276D1C6C65a0",
    "0x7861158d69B3591Dd89EB603352c99aA1B18b815"
  ],
  "numDeployments": 1,
  "solcInputHash": "3004fb69145baf262ffd181d54fcaf95",
  "bytecode": "0x60c06040523480156200001157600080fd5b5060405162002dcb38038062002dcb833981810160405281019062000037919062000284565b8273ffffffffffffffffffffffffffffffffffffffff1660a08173ffffffffffffffffffffffffffffffffffffffff16815250507fb3eacd0e351fafdfefdec84e1cd19679b38dbcd63ea7c2c24da17fd2bc3b3c0e60a0516040516200009e9190620002f1565b60405180910390a1816000806101000a81548173ffffffffffffffffffffffffffffffffffffffff021916908373ffffffffffffffffffffffffffffffffffffffff1602179055507f9176b7f47e4504df5e5516c99d90d82ac7cbd49cc77e7f22ba2ac2f2e3a3eba860008054906101000a900473ffffffffffffffffffffffffffffffffffffffff16604051620001379190620002f1565b60405180910390a18073ffffffffffffffffffffffffffffffffffffffff1660808173ffffffffffffffffffffffffffffffffffffffff16815250505050506200030e565b600080fd5b600073ffffffffffffffffffffffffffffffffffffffff82169050919050565b6000620001ae8262000181565b9050919050565b6000620001c282620001a1565b9050919050565b620001d481620001b5565b8114620001e057600080fd5b50565b600081519050620001f481620001c9565b92915050565b60006200020782620001a1565b9050919050565b6200021981620001fa565b81146200022557600080fd5b50565b60008151905062000239816200020e565b92915050565b60006200024c82620001a1565b9050919050565b6200025e816200023f565b81146200026a57600080fd5b50565b6000815190506200027e8162000253565b92915050565b600080600060608486031215620002a0576200029f6200017c565b5b6000620002b086828701620001e3565b9350506020620002c38682870162000228565b9250506040620002d6868287016200026d565b9150509250925092565b620002eb81620001a1565b82525050565b6000602082019050620003086000830184620002e0565b92915050565b60805160a051612a5862000373600039600081816109040152610930015260008181610395015281816104c301528181610556015281816105f601528181610814015281816108e001528181610de901528181610f69015261107b0152612a586000f3fe608060405234801561001057600080fd5b50600436106100885760003560e01c806329d566301161005b57806329d566301461012557806330349ebe146101415780633f15457f1461015f5780637dc0d1d01461017d57610088565b806301ffc9a71461008d57806306963218146100bd5780631ecfc411146100d957806325916d41146100f5575b600080fd5b6100a760048036038101906100a29190611995565b61019b565b6040516100b491906119dd565b60405180910390f35b6100d760048036038101906100d29190611d14565b61026d565b005b6100f360048036038101906100ee9190611df1565b6105f2565b005b61010f600480360381019061010a9190611e54565b6107da565b60405161011c9190611ea0565b60405180910390f35b61013f600480360381019061013a9190611ebb565b6107fd565b005b6101496108ba565b6040516101569190611f92565b60405180910390f35b6101676108de565b6040516101749190611fce565b60405180910390f35b610185610902565b604051610192919061200a565b60405180910390f35b60007f01ffc9a7000000000000000000000000000000000000000000000000000000007bffffffffffffffffffffffffffffffffffffffffffffffffffffffff1916827bffffffffffffffffffffffffffffffffffffffffffffffffffffffff1916148061026657507f2f435428000000000000000000000000000000000000000000000000000000007bffffffffffffffffffffffffffffffffffffffffffffffffffffffff1916827bffffffffffffffffffffffffffffffffffffffffffffffffffffffff1916145b9050919050565b600080600061027c8787610926565b9250925092508073ffffffffffffffffffffffffffffffffffffffff163373ffffffffffffffffffffffffffffffffffffffff16146102f0576040517f08c379a00000000000000000000000000000000000000000000000000000000081526004016102e7906120a8565b60405180910390fd5b600073ffffffffffffffffffffffffffffffffffffffff168473ffffffffffffffffffffffffffffffffffffffff161461055457600073ffffffffffffffffffffffffffffffffffffffff168573ffffffffffffffffffffffffffffffffffffffff1603610393576040517f08c379a000000000000000000000000000000000000000000000000000000000815260040161038a9061213a565b60405180910390fd5b7f000000000000000000000000000000000000000000000000000000000000000073ffffffffffffffffffffffffffffffffffffffff16635ef2c7f08484308960006040518663ffffffff1660e01b81526004016103f59594939291906121c7565b600060405180830381600087803b15801561040f57600080fd5b505af1158015610423573d6000803e3d6000fd5b505050506000838360405160200161043c92919061223b565b6040516020818303038152906040528051906020012090508573ffffffffffffffffffffffffffffffffffffffff1663d5fa2b0082876040518363ffffffff1660e01b815260040161048f929190612267565b600060405180830381600087803b1580156104a957600080fd5b505af11580156104bd573d6000803e3d6000fd5b505050507f000000000000000000000000000000000000000000000000000000000000000073ffffffffffffffffffffffffffffffffffffffff16635b0fc9c382846040518363ffffffff1660e01b815260040161051c929190612267565b600060405180830381600087803b15801561053657600080fd5b505af115801561054a573d6000803e3d6000fd5b50505050506105e9565b7f000000000000000000000000000000000000000000000000000000000000000073ffffffffffffffffffffffffffffffffffffffff16635ef2c7f08484848960006040518663ffffffff1660e01b81526004016105b69594939291906121c7565b600060405180830381600087803b1580156105d057600080fd5b505af11580156105e4573d6000803e3d6000fd5b505050505b50505050505050565b60007f000000000000000000000000000000000000000000000000000000000000000073ffffffffffffffffffffffffffffffffffffffff166302571be36000801b6040518263ffffffff1660e01b81526004016106509190612290565b602060405180830381865afa15801561066d573d6000803e3d6000fd5b505050506040513d601f19601f8201168201806040525081019061069191906122c0565b905060008173ffffffffffffffffffffffffffffffffffffffff16638da5cb5b6040518163ffffffff1660e01b8152600401602060405180830381865afa1580156106e0573d6000803e3d6000fd5b505050506040513d601f19601f8201168201806040525081019061070491906122c0565b90508073ffffffffffffffffffffffffffffffffffffffff163373ffffffffffffffffffffffffffffffffffffffff161461073e57600080fd5b826000806101000a81548173ffffffffffffffffffffffffffffffffffffffff021916908373ffffffffffffffffffffffffffffffffffffffff1602179055507f9176b7f47e4504df5e5516c99d90d82ac7cbd49cc77e7f22ba2ac2f2e3a3eba860008054906101000a900473ffffffffffffffffffffffffffffffffffffffff166040516107cd91906122ed565b60405180910390a1505050565b60016020528060005260406000206000915054906101000a900463ffffffff1681565b600080600061080c8585610926565b9250925092507f000000000000000000000000000000000000000000000000000000000000000073ffffffffffffffffffffffffffffffffffffffff166306ab59238484846040518463ffffffff1660e01b815260040161086f93929190612308565b6020604051808303816000875af115801561088e573d6000803e3d6000fd5b505050506040513d601f19601f820116820180604052508101906108b29190612354565b505050505050565b60008054906101000a900473ffffffffffffffffffffffffffffffffffffffff1681565b7f000000000000000000000000000000000000000000000000000000000000000081565b7f000000000000000000000000000000000000000000000000000000000000000081565b60008060008060007f000000000000000000000000000000000000000000000000000000000000000073ffffffffffffffffffffffffffffffffffffffff1663bdf95fef876040518263ffffffff1660e01b81526004016109879190612506565b600060405180830381865afa1580156109a4573d6000803e3d6000fd5b505050506040513d6000823e3d601f19601f820116820180604052508101906109cd91906125c4565b9150915060006109e7600089610c5590919063ffffffff16565b60ff169050610a026001828a610c809092919063ffffffff16565b94506000610a3f600183610a169190612659565b6001848c51610a25919061268d565b610a2f919061268d565b8b610cac9092919063ffffffff16565b905060008054906101000a900473ffffffffffffffffffffffffffffffffffffffff1673ffffffffffffffffffffffffffffffffffffffff16634f89059e826040518263ffffffff1660e01b8152600401610a9a919061270b565b602060405180830381865afa158015610ab7573d6000803e3d6000fd5b505050506040513d601f19601f82011682018060405250810190610adb9190612759565b610b1a576040517f08c379a0000000000000000000000000000000000000000000000000000000008152600401610b11906127f8565b60405180910390fd5b610b25816000610d41565b965060008787604051602001610b3c92919061223b565b604051602081830303815290604052805190602001209050610b81846001600084815260200190815260200160002060009054906101000a900463ffffffff16611127565b610bb7576040517f2dd6a7af00000000000000000000000000000000000000000000000000000000815260040160405180910390fd5b836001600083815260200190815260200160002060006101000a81548163ffffffff021916908363ffffffff160217905550610bf38a8661113a565b50809650508573ffffffffffffffffffffffffffffffffffffffff16817f87db02a0e483e2818060eddcbb3488ce44e35aff49a70d92c2aa6c8046cf01e28c87604051610c41929190612818565b60405180910390a350505050509250925092565b6000828281518110610c6a57610c69612848565b5b602001015160f81c60f81b60f81c905092915050565b600083518284610c909190612659565b1115610c9b57600080fd5b818360208601012090509392505050565b606083518284610cbc9190612659565b1115610cc757600080fd5b60008267ffffffffffffffff811115610ce357610ce2611a13565b5b6040519080825280601f01601f191660200182016040528015610d155781602001600182028036833780820191505090505b5090506000806020830191508560208801019050610d34828287611239565b8293505050509392505050565b600080610d578385610c5590919063ffffffff16565b60ff16905060008103610d70576000801b915050611121565b6000610d938560018487610d849190612659565b610d8e9190612659565b610d41565b90506000610db8600186610da79190612659565b8488610c809092919063ffffffff16565b90508181604051602001610dcd92919061223b565b60405160208183030381529060405280519060200120935060007f000000000000000000000000000000000000000000000000000000000000000073ffffffffffffffffffffffffffffffffffffffff166302571be3866040518263ffffffff1660e01b8152600401610e409190612290565b602060405180830381865afa158015610e5d573d6000803e3d6000fd5b505050506040513d601f19601f82011682018060405250810190610e8191906122c0565b9050600073ffffffffffffffffffffffffffffffffffffffff168173ffffffffffffffffffffffffffffffffffffffff161480610ee957503073ffffffffffffffffffffffffffffffffffffffff168173ffffffffffffffffffffffffffffffffffffffff16145b610f28576040517f08c379a0000000000000000000000000000000000000000000000000000000008152600401610f1f906128e9565b60405180910390fd5b3073ffffffffffffffffffffffffffffffffffffffff168173ffffffffffffffffffffffffffffffffffffffff161461111c576000801b83036110795760007f000000000000000000000000000000000000000000000000000000000000000073ffffffffffffffffffffffffffffffffffffffff166302571be36000801b6040518263ffffffff1660e01b8152600401610fc39190612290565b602060405180830381865afa158015610fe0573d6000803e3d6000fd5b505050506040513d601f19601f8201168201806040525081019061100491906122c0565b90508073ffffffffffffffffffffffffffffffffffffffff16638cb8ecec84306040518363ffffffff1660e01b8152600401611041929190612267565b600060405180830381600087803b15801561105b57600080fd5b505af115801561106f573d6000803e3d6000fd5b505050505061111b565b7f000000000000000000000000000000000000000000000000000000000000000073ffffffffffffffffffffffffffffffffffffffff166306ab59238484306040518463ffffffff1660e01b81526004016110d693929190612308565b6020604051808303816000875af11580156110f5573d6000803e3d6000fd5b505050506040513d601f19601f820116820180604052508101906111199190612354565b505b5b505050505b92915050565b60008082840360030b1215905092915050565b6000806111456118c4565b611165600586516111569190612659565b8261129d90919063ffffffff16565b506111ae6040518060400160405280600581526020017f045f656e730000000000000000000000000000000000000000000000000000008152508261130790919063ffffffff16565b506111c2858261130790919063ffffffff16565b5060006111d960008661132990919063ffffffff16565b90505b6111e581611353565b611228576000806111fa878460a00151611369565b80935081925050508115611218578060019550955050505050611232565b5050611223816113ef565b6111dc565b5060008092509250505b9250929050565b5b6020811061127857815183526020836112539190612659565b92506020826112629190612659565b9150602081611271919061268d565b905061123a565b60006001826020036101000a0390508019835116818551168181178652505050505050565b6112a56118c4565b60006020836112b49190612938565b146112e0576020826112c69190612938565b60206112d2919061268d565b826112dd9190612659565b91505b81836020018181525050604051808452600081528281016020016040525082905092915050565b61130f6118c4565b61132183846000015151848551611535565b905092915050565b6113316118de565b828160000181905250818160c001818152505061134d816113ef565b92915050565b6000816000015151826020015110159050919050565b6000805b83518310156113e057600061138b8486610c5590919063ffffffff16565b60ff16905060018461139d9190612659565b93506000806113ad878785611624565b809350819250505081156113ca57806001945094505050506113e8565b82866113d69190612659565b955050505061136d565b600080915091505b9250929050565b8060c00151816020018181525050806000015151816020015110156115325760006114228260000151836020015161168e565b82602001516114319190612659565b905061144a81836000015161170a90919063ffffffff16565b826040019061ffff16908161ffff168152505060028161146a9190612659565b905061148381836000015161170a90919063ffffffff16565b826060019061ffff16908161ffff16815250506002816114a39190612659565b90506114bc81836000015161173990919063ffffffff16565b826080019063ffffffff16908163ffffffff16815250506004816114e09190612659565b905060006114fb82846000015161170a90919063ffffffff16565b61ffff16905060028261150e9190612659565b9150818360a001818152505080826115269190612659565b8360c001818152505050505b50565b61153d6118c4565b825182111561154b57600080fd5b8460200151828561155c9190612659565b1115611591576115908560026115818860200151888761157c9190612659565b61176a565b61158b9190612969565b611786565b5b6000808651805187602083010193508088870111156115b05787860182525b60208701925050505b602084106115f757805182526020826115d29190612659565b91506020816115e19190612659565b90506020846115f0919061268d565b93506115b9565b60006001856020036101000a03905080198251168184511681811785525050508692505050949350505050565b60008063613d307861163f858761173990919063ffffffff16565b63ffffffff16146116565760008091509150611686565b602c83101561166b5760008091509150611686565b6116818560048661167c9190612659565b6117aa565b915091505b935093915050565b6000808290505b6001156116f557835181106116ad576116ac6129ab565b5b60006116c28286610c5590919063ffffffff16565b60ff1690506001816116d49190612659565b826116df9190612659565b9150600081036116ef57506116f5565b50611695565b8281611701919061268d565b91505092915050565b6000825160028361171b9190612659565b111561172657600080fd5b61ffff8260028501015116905092915050565b6000825160048361174a9190612659565b111561175557600080fd5b63ffffffff8260048501015116905092915050565b60008183111561177c57829050611780565b8190505b92915050565b600082600001519050611799838361129d565b506117a48382611307565b50505050565b60008060288385516117bc919061268d565b10156117ce57600080915091506118bd565b6000808490505b6028856117e29190612659565b8110156118b357600482901b915060006118058288610c5590919063ffffffff16565b60ff1690506030811015801561181b5750603a81105b156118365760308161182d919061268d565b8317925061189f565b604181101580156118475750604781105b1561186257603781611859919061268d565b8317925061189e565b606181101580156118735750606781105b1561188e57605781611885919061268d565b8317925061189d565b600080945094505050506118bd565b5b5b5080806118ab906129da565b9150506117d5565b5080600192509250505b9250929050565b604051806040016040528060608152602001600081525090565b6040518060e001604052806060815260200160008152602001600061ffff168152602001600061ffff168152602001600063ffffffff16815260200160008152602001600081525090565b6000604051905090565b600080fd5b600080fd5b60007fffffffff0000000000000000000000000000000000000000000000000000000082169050919050565b6119728161193d565b811461197d57600080fd5b50565b60008135905061198f81611969565b92915050565b6000602082840312156119ab576119aa611933565b5b60006119b984828501611980565b91505092915050565b60008115159050919050565b6119d7816119c2565b82525050565b60006020820190506119f260008301846119ce565b92915050565b600080fd5b600080fd5b6000601f19601f8301169050919050565b7f4e487b7100000000000000000000000000000000000000000000000000000000600052604160045260246000fd5b611a4b82611a02565b810181811067ffffffffffffffff82111715611a6a57611a69611a13565b5b80604052505050565b6000611a7d611929565b9050611a898282611a42565b919050565b600067ffffffffffffffff821115611aa957611aa8611a13565b5b611ab282611a02565b9050602081019050919050565b82818337600083830152505050565b6000611ae1611adc84611a8e565b611a73565b905082815260208101848484011115611afd57611afc6119fd565b5b611b08848285611abf565b509392505050565b600082601f830112611b2557611b246119f8565b5b8135611b35848260208601611ace565b91505092915050565b600067ffffffffffffffff821115611b5957611b58611a13565b5b602082029050602081019050919050565b600080fd5b600080fd5b600080fd5b600060408284031215611b8f57611b8e611b6f565b5b611b996040611a73565b9050600082013567ffffffffffffffff811115611bb957611bb8611b74565b5b611bc584828501611b10565b600083015250602082013567ffffffffffffffff811115611be957611be8611b74565b5b611bf584828501611b10565b60208301525092915050565b6000611c14611c0f84611b3e565b611a73565b90508083825260208201905060208402830185811115611c3757611c36611b6a565b5b835b81811015611c7e57803567ffffffffffffffff811115611c5c57611c5b6119f8565b5b808601611c698982611b79565b85526020850194505050602081019050611c39565b5050509392505050565b600082601f830112611c9d57611c9c6119f8565b5b8135611cad848260208601611c01565b91505092915050565b600073ffffffffffffffffffffffffffffffffffffffff82169050919050565b6000611ce182611cb6565b9050919050565b611cf181611cd6565b8114611cfc57600080fd5b50565b600081359050611d0e81611ce8565b92915050565b60008060008060808587031215611d2e57611d2d611933565b5b600085013567ffffffffffffffff811115611d4c57611d4b611938565b5b611d5887828801611b10565b945050602085013567ffffffffffffffff811115611d7957611d78611938565b5b611d8587828801611c88565b9350506040611d9687828801611cff565b9250506060611da787828801611cff565b91505092959194509250565b6000611dbe82611cd6565b9050919050565b611dce81611db3565b8114611dd957600080fd5b50565b600081359050611deb81611dc5565b92915050565b600060208284031215611e0757611e06611933565b5b6000611e1584828501611ddc565b91505092915050565b6000819050919050565b611e3181611e1e565b8114611e3c57600080fd5b50565b600081359050611e4e81611e28565b92915050565b600060208284031215611e6a57611e69611933565b5b6000611e7884828501611e3f565b91505092915050565b600063ffffffff82169050919050565b611e9a81611e81565b82525050565b6000602082019050611eb56000830184611e91565b92915050565b60008060408385031215611ed257611ed1611933565b5b600083013567ffffffffffffffff811115611ef057611eef611938565b5b611efc85828601611b10565b925050602083013567ffffffffffffffff811115611f1d57611f1c611938565b5b611f2985828601611c88565b9150509250929050565b6000819050919050565b6000611f58611f53611f4e84611cb6565b611f33565b611cb6565b9050919050565b6000611f6a82611f3d565b9050919050565b6000611f7c82611f5f565b9050919050565b611f8c81611f71565b82525050565b6000602082019050611fa76000830184611f83565b92915050565b6000611fb882611f5f565b9050919050565b611fc881611fad565b82525050565b6000602082019050611fe36000830184611fbf565b92915050565b6000611ff482611f5f565b9050919050565b61200481611fe9565b82525050565b600060208201905061201f6000830184611ffb565b92915050565b600082825260208201905092915050565b7f4f6e6c79206f776e65722063616e2063616c6c2070726f7665416e64436c616960008201527f6d576974685265736f6c76657200000000000000000000000000000000000000602082015250565b6000612092602d83612025565b915061209d82612036565b604082019050919050565b600060208201905081810360008301526120c181612085565b9050919050565b7f43616e6e6f74207365742061646472206966207265736f6c766572206973206e60008201527f6f74207365740000000000000000000000000000000000000000000000000000602082015250565b6000612124602683612025565b915061212f826120c8565b604082019050919050565b6000602082019050818103600083015261215381612117565b9050919050565b61216381611e1e565b82525050565b61217281611cd6565b82525050565b6000819050919050565b600067ffffffffffffffff82169050919050565b60006121b16121ac6121a784612178565b611f33565b612182565b9050919050565b6121c181612196565b82525050565b600060a0820190506121dc600083018861215a565b6121e9602083018761215a565b6121f66040830186612169565b6122036060830185612169565b61221060808301846121b8565b9695505050505050565b6000819050919050565b61223561223082611e1e565b61221a565b82525050565b60006122478285612224565b6020820191506122578284612224565b6020820191508190509392505050565b600060408201905061227c600083018561215a565b6122896020830184612169565b9392505050565b60006020820190506122a5600083018461215a565b92915050565b6000815190506122ba81611ce8565b92915050565b6000602082840312156122d6576122d5611933565b5b60006122e4848285016122ab565b91505092915050565b60006020820190506123026000830184612169565b92915050565b600060608201905061231d600083018661215a565b61232a602083018561215a565b6123376040830184612169565b949350505050565b60008151905061234e81611e28565b92915050565b60006020828403121561236a57612369611933565b5b60006123788482850161233f565b91505092915050565b600081519050919050565b600082825260208201905092915050565b6000819050602082019050919050565b600081519050919050565b600082825260208201905092915050565b60005b838110156123e75780820151818401526020810190506123cc565b60008484015250505050565b60006123fe826123ad565b61240881856123b8565b93506124188185602086016123c9565b61242181611a02565b840191505092915050565b6000604083016000830151848203600086015261244982826123f3565b9150506020830151848203602086015261246382826123f3565b9150508091505092915050565b600061247c838361242c565b905092915050565b6000602082019050919050565b600061249c82612381565b6124a6818561238c565b9350836020820285016124b88561239d565b8060005b858110156124f457848403895281516124d58582612470565b94506124e083612484565b925060208a019950506001810190506124bc565b50829750879550505050505092915050565b600060208201905081810360008301526125208184612491565b905092915050565b600061253b61253684611a8e565b611a73565b905082815260208101848484011115612557576125566119fd565b5b6125628482856123c9565b509392505050565b600082601f83011261257f5761257e6119f8565b5b815161258f848260208601612528565b91505092915050565b6125a181611e81565b81146125ac57600080fd5b50565b6000815190506125be81612598565b92915050565b600080604083850312156125db576125da611933565b5b600083015167ffffffffffffffff8111156125f9576125f8611938565b5b6126058582860161256a565b9250506020612616858286016125af565b9150509250929050565b6000819050919050565b7f4e487b7100000000000000000000000000000000000000000000000000000000600052601160045260246000fd5b600061266482612620565b915061266f83612620565b92508282019050808211156126875761268661262a565b5b92915050565b600061269882612620565b91506126a383612620565b92508282039050818111156126bb576126ba61262a565b5b92915050565b600082825260208201905092915050565b60006126dd826123ad565b6126e781856126c1565b93506126f78185602086016123c9565b61270081611a02565b840191505092915050565b6000602082019050818103600083015261272581846126d2565b905092915050565b612736816119c2565b811461274157600080fd5b50565b6000815190506127538161272d565b92915050565b60006020828403121561276f5761276e611933565b5b600061277d84828501612744565b91505092915050565b7f506172656e74206e616d65206d7573742062652061207075626c69632073756660008201527f6669780000000000000000000000000000000000000000000000000000000000602082015250565b60006127e2602383612025565b91506127ed82612786565b604082019050919050565b60006020820190508181036000830152612811816127d5565b9050919050565b6000604082019050818103600083015261283281856126d2565b90506128416020830184611e91565b9392505050565b7f4e487b7100000000000000000000000000000000000000000000000000000000600052603260045260246000fd5b7f43616e6e6f7420656e61626c652061206e616d65206f776e656420627920736f60008201527f6d656f6e6520656c736500000000000000000000000000000000000000000000602082015250565b60006128d3602a83612025565b91506128de82612877565b604082019050919050565b60006020820190508181036000830152612902816128c6565b9050919050565b7f4e487b7100000000000000000000000000000000000000000000000000000000600052601260045260246000fd5b600061294382612620565b915061294e83612620565b92508261295e5761295d612909565b5b828206905092915050565b600061297482612620565b915061297f83612620565b925082820261298d81612620565b915082820484148315176129a4576129a361262a565b5b5092915050565b7f4e487b7100000000000000000000000000000000000000000000000000000000600052600160045260246000fd5b60006129e582612620565b91507fffffffffffffffffffffffffffffffffffffffffffffffffffffffffffffffff8203612a1757612a1661262a565b5b60018201905091905056fea2646970667358221220f0f29a3c2e04ba729d0c76866bd1c4433992d8feb9d68cbdc383f9a7a37fe7dd64736f6c63430008110033",
  "devdoc": {
    "details": "An ENS registrar that allows the owner of a DNS name to claim the      corresponding name in ENS.",
    "kind": "dev",
    "methods": {
      "proveAndClaim(bytes,(bytes,bytes)[])": {
        "details": "Submits proofs to the DNSSEC oracle, then claims a name using those proofs.",
        "params": {
          "input": "A chain of signed DNS RRSETs ending with a text record.",
          "name": "The name to claim, in DNS wire format."
        }
      }
    },
    "version": 1
  },
  "userdoc": {
    "kind": "user",
    "methods": {},
    "version": 1
  },
  "storageLayout": {
    "storage": [
      {
        "astId": 4425,
        "contract": "contracts/dnsregistrar/DNSRegistrar.sol:DNSRegistrar",
        "label": "suffixes",
        "offset": 0,
        "slot": "0",
        "type": "t_contract(PublicSuffixList)4992"
      },
      {
        "astId": 4429,
        "contract": "contracts/dnsregistrar/DNSRegistrar.sol:DNSRegistrar",
        "label": "inceptions",
        "offset": 0,
        "slot": "1",
        "type": "t_mapping(t_bytes32,t_uint32)"
      }
    ],
    "types": {
      "t_bytes32": {
        "encoding": "inplace",
        "label": "bytes32",
        "numberOfBytes": "32"
      },
      "t_contract(PublicSuffixList)4992": {
        "encoding": "inplace",
        "label": "contract PublicSuffixList",
        "numberOfBytes": "20"
      },
      "t_mapping(t_bytes32,t_uint32)": {
        "encoding": "mapping",
        "key": "t_bytes32",
        "label": "mapping(bytes32 => uint32)",
        "numberOfBytes": "32",
        "value": "t_uint32"
      },
      "t_uint32": {
        "encoding": "inplace",
        "label": "uint32",
        "numberOfBytes": "4"
      }
    }
  }
}