{
  "address": "0x8DbE15c88F4a9294928FcE5E3efD60f4Aab2A8E3",
  "abi": [
    {
      "inputs": [
        {
          "internalType": "bytes",
          "name": "_anchors",
          "type": "bytes"
        }
      ],
      "stateMutability": "nonpayable",
      "type": "constructor"
    },
    {
      "inputs": [
        {
          "internalType": "uint16",
          "name": "class",
          "type": "uint16"
        }
      ],
      "name": "InvalidClass",
      "type": "error"
    },
    {
      "inputs": [
        {
          "internalType": "bytes",
          "name": "name",
          "type": "bytes"
        },
        {
          "internalType": "uint256",
          "name": "labelsExpected",
          "type": "uint256"
        }
      ],
      "name": "InvalidLabelCount",
      "type": "error"
    },
    {
      "inputs": [
        {
          "internalType": "uint16",
          "name": "proofType",
          "type": "uint16"
        }
      ],
      "name": "InvalidProofType",
      "type": "error"
    },
    {
      "inputs": [],
      "name": "InvalidRRSet",
      "type": "error"
    },
    {
      "inputs": [
        {
          "internalType": "bytes",
          "name": "rrsetName",
          "type": "bytes"
        },
        {
          "internalType": "bytes",
          "name": "signerName",
          "type": "bytes"
        }
      ],
      "name": "InvalidSignerName",
      "type": "error"
    },
    {
      "inputs": [
        {
          "internalType": "bytes",
          "name": "signerName",
          "type": "bytes"
        }
      ],
      "name": "NoMatchingProof",
      "type": "error"
    },
    {
      "inputs": [
        {
          "internalType": "bytes",
          "name": "signerName",
          "type": "bytes"
        },
        {
          "internalType": "bytes",
          "name": "proofName",
          "type": "bytes"
        }
      ],
      "name": "ProofNameMismatch",
      "type": "error"
    },
    {
      "inputs": [
        {
          "internalType": "uint32",
          "name": "expiration",
          "type": "uint32"
        },
        {
          "internalType": "uint32",
          "name": "now",
          "type": "uint32"
        }
      ],
      "name": "SignatureExpired",
      "type": "error"
    },
    {
      "inputs": [
        {
          "internalType": "uint32",
          "name": "inception",
          "type": "uint32"
        },
        {
          "internalType": "uint32",
          "name": "now",
          "type": "uint32"
        }
      ],
      "name": "SignatureNotValidYet",
      "type": "error"
    },
    {
      "inputs": [
        {
          "internalType": "uint16",
          "name": "rrsetType",
          "type": "uint16"
        },
        {
          "internalType": "uint16",
          "name": "sigType",
          "type": "uint16"
        }
      ],
      "name": "SignatureTypeMismatch",
      "type": "error"
    },
    {
      "anonymous": false,
      "inputs": [
        {
          "indexed": false,
          "internalType": "uint8",
          "name": "id",
          "type": "uint8"
        },
        {
          "indexed": false,
          "internalType": "address",
          "name": "addr",
          "type": "address"
        }
      ],
      "name": "AlgorithmUpdated",
      "type": "event"
    },
    {
      "anonymous": false,
      "inputs": [
        {
          "indexed": false,
          "internalType": "uint8",
          "name": "id",
          "type": "uint8"
        },
        {
          "indexed": false,
          "internalType": "address",
          "name": "addr",
          "type": "address"
        }
      ],
      "name": "DigestUpdated",
      "type": "event"
    },
    {
      "inputs": [
        {
          "internalType": "uint8",
          "name": "",
          "type": "uint8"
        }
      ],
      "name": "algorithms",
      "outputs": [
        {
          "internalType": "contract Algorithm",
          "name": "",
          "type": "address"
        }
      ],
      "stateMutability": "view",
      "type": "function"
    },
    {
      "inputs": [],
      "name": "anchors",
      "outputs": [
        {
          "internalType": "bytes",
          "name": "",
          "type": "bytes"
        }
      ],
      "stateMutability": "view",
      "type": "function"
    },
    {
      "inputs": [
        {
          "internalType": "uint8",
          "name": "",
          "type": "uint8"
        }
      ],
      "name": "digests",
      "outputs": [
        {
          "internalType": "contract Digest",
          "name": "",
          "type": "address"
        }
      ],
      "stateMutability": "view",
      "type": "function"
    },
    {
      "inputs": [],
      "name": "owner",
      "outputs": [
        {
          "internalType": "address",
          "name": "",
          "type": "address"
        }
      ],
      "stateMutability": "view",
      "type": "function"
    },
    {
      "inputs": [
        {
          "internalType": "uint8",
          "name": "id",
          "type": "uint8"
        },
        {
          "internalType": "contract Algorithm",
          "name": "algo",
          "type": "address"
        }
      ],
      "name": "setAlgorithm",
      "outputs": [],
      "stateMutability": "nonpayable",
      "type": "function"
    },
    {
      "inputs": [
        {
          "internalType": "uint8",
          "name": "id",
          "type": "uint8"
        },
        {
          "internalType": "contract Digest",
          "name": "digest",
          "type": "address"
        }
      ],
      "name": "setDigest",
      "outputs": [],
      "stateMutability": "nonpayable",
      "type": "function"
    },
    {
      "inputs": [
        {
          "internalType": "address",
          "name": "newOwner",
          "type": "address"
        }
      ],
      "name": "setOwner",
      "outputs": [],
      "stateMutability": "nonpayable",
      "type": "function"
    },
    {
      "inputs": [
        {
          "components": [
            {
              "internalType": "bytes",
              "name": "rrset",
              "type": "bytes"
            },
            {
              "internalType": "bytes",
              "name": "sig",
              "type": "bytes"
            }
          ],
          "internalType": "struct DNSSEC.RRSetWithSignature[]",
          "name": "input",
          "type": "tuple[]"
        },
        {
          "internalType": "uint256",
          "name": "now",
          "type": "uint256"
        }
      ],
      "name": "verifyRRSet",
      "outputs": [
        {
          "internalType": "bytes",
          "name": "rrs",
          "type": "bytes"
        },
        {
          "internalType": "uint32",
          "name": "inception",
          "type": "uint32"
        }
      ],
      "stateMutability": "view",
      "type": "function"
    },
    {
      "inputs": [
        {
          "components": [
            {
              "internalType": "bytes",
              "name": "rrset",
              "type": "bytes"
            },
            {
              "internalType": "bytes",
              "name": "sig",
              "type": "bytes"
            }
          ],
          "internalType": "struct DNSSEC.RRSetWithSignature[]",
          "name": "input",
          "type": "tuple[]"
        }
      ],
      "name": "verifyRRSet",
      "outputs": [
        {
          "internalType": "bytes",
          "name": "rrs",
          "type": "bytes"
        },
        {
          "internalType": "uint32",
          "name": "inception",
          "type": "uint32"
        }
      ],
      "stateMutability": "view",
      "type": "function"
    }
  ],
  "transactionHash": "0x180c6543df4b57b787f2f1b1488ea9d4ec444c59ecc1b2cc4575fe1eeb3663e2",
  "args": [
    "0x00002b000100000e1000244a5c080249aac11d7b6f6446702e54a1607371607a1a41855200fd2ce1cdde32f24e8fb500002b000100000e1000244f660802e06d44b80b8f1d39a95c0b0d7c65d08458e880409bbc683457104237c7f8ec8d"
  ],
  "numDeployments": 1,
  "solcInputHash": "3004fb69145baf262ffd181d54fcaf95",
  "bytecode": "0x60806040523480156200001157600080fd5b50604051620031e1380380620031e1833981810160405281019062000037919062000224565b33600160006101000a81548173ffffffffffffffffffffffffffffffffffffffff021916908373ffffffffffffffffffffffffffffffffffffffff1602179055508060009081620000899190620004c0565b5050620005a7565b6000604051905090565b600080fd5b600080fd5b600080fd5b600080fd5b6000601f19601f8301169050919050565b7f4e487b7100000000000000000000000000000000000000000000000000000000600052604160045260246000fd5b620000fa82620000af565b810181811067ffffffffffffffff821117156200011c576200011b620000c0565b5b80604052505050565b60006200013162000091565b90506200013f8282620000ef565b919050565b600067ffffffffffffffff821115620001625762000161620000c0565b5b6200016d82620000af565b9050602081019050919050565b60005b838110156200019a5780820151818401526020810190506200017d565b60008484015250505050565b6000620001bd620001b78462000144565b62000125565b905082815260208101848484011115620001dc57620001db620000aa565b5b620001e98482856200017a565b509392505050565b600082601f830112620002095762000208620000a5565b5b81516200021b848260208601620001a6565b91505092915050565b6000602082840312156200023d576200023c6200009b565b5b600082015167ffffffffffffffff8111156200025e576200025d620000a0565b5b6200026c84828501620001f1565b91505092915050565b600081519050919050565b7f4e487b7100000000000000000000000000000000000000000000000000000000600052602260045260246000fd5b60006002820490506001821680620002c857607f821691505b602082108103620002de57620002dd62000280565b5b50919050565b60008190508160005260206000209050919050565b60006020601f8301049050919050565b600082821b905092915050565b600060088302620003487fffffffffffffffffffffffffffffffffffffffffffffffffffffffffffffffff8262000309565b62000354868362000309565b95508019841693508086168417925050509392505050565b6000819050919050565b6000819050919050565b6000620003a16200039b62000395846200036c565b62000376565b6200036c565b9050919050565b6000819050919050565b620003bd8362000380565b620003d5620003cc82620003a8565b84845462000316565b825550505050565b600090565b620003ec620003dd565b620003f9818484620003b2565b505050565b5b81811015620004215762000415600082620003e2565b600181019050620003ff565b5050565b601f82111562000470576200043a81620002e4565b6200044584620002f9565b8101602085101562000455578190505b6200046d6200046485620002f9565b830182620003fe565b50505b505050565b600082821c905092915050565b6000620004956000198460080262000475565b1980831691505092915050565b6000620004b0838362000482565b9150826002028217905092915050565b620004cb8262000275565b67ffffffffffffffff811115620004e757620004e6620000c0565b5b620004f38254620002af565b6200050082828562000425565b600060209050601f83116001811462000538576000841562000523578287015190505b6200052f8582620004a2565b8655506200059f565b601f1984166200054886620002e4565b60005b8281101562000572578489015182556001820191506020850194506020810190506200054b565b868310156200059257848901516200058e601f89168262000482565b8355505b6001600288020188555050505b505050505050565b612c2a80620005b76000396000f3fe608060405234801561001057600080fd5b50600436106100935760003560e01c806373cc48a61161006657806373cc48a61461011d5780638da5cb5b1461014d57806398d35f201461016b578063bdf95fef14610189578063c327deef146101ba57610093565b8063020ed8d31461009857806313af4035146100b457806328e7677d146100d0578063440f3d42146100ec575b600080fd5b6100b260048036038101906100ad9190612057565b6101ea565b005b6100ce60048036038101906100c991906120c3565b6102d9565b005b6100ea60048036038101906100e5919061212e565b610377565b005b61010660048036038101906101019190612462565b610466565b60405161011492919061255c565b60405180910390f35b6101376004803603810190610132919061258c565b61055c565b6040516101449190612618565b60405180910390f35b61015561058f565b6040516101629190612642565b60405180910390f35b6101736105b5565b604051610180919061265d565b60405180910390f35b6101a3600480360381019061019e919061267f565b610643565b6040516101b192919061255c565b60405180910390f35b6101d460048036038101906101cf919061258c565b61065a565b6040516101e191906126e9565b60405180910390f35b600160009054906101000a900473ffffffffffffffffffffffffffffffffffffffff1673ffffffffffffffffffffffffffffffffffffffff163373ffffffffffffffffffffffffffffffffffffffff161461024457600080fd5b80600260008460ff1660ff16815260200190815260200160002060006101000a81548173ffffffffffffffffffffffffffffffffffffffff021916908373ffffffffffffffffffffffffffffffffffffffff1602179055507ff73c3c226af96b7f1ba666a21b3ceaf2be3ee6a365e3178fd9cd1eaae0075aa882826040516102cd929190612713565b60405180910390a15050565b600160009054906101000a900473ffffffffffffffffffffffffffffffffffffffff1673ffffffffffffffffffffffffffffffffffffffff163373ffffffffffffffffffffffffffffffffffffffff161461033357600080fd5b80600160006101000a81548173ffffffffffffffffffffffffffffffffffffffff021916908373ffffffffffffffffffffffffffffffffffffffff16021790555050565b600160009054906101000a900473ffffffffffffffffffffffffffffffffffffffff1673ffffffffffffffffffffffffffffffffffffffff163373ffffffffffffffffffffffffffffffffffffffff16146103d157600080fd5b80600360008460ff1660ff16815260200190815260200160002060006101000a81548173ffffffffffffffffffffffffffffffffffffffff021916908373ffffffffffffffffffffffffffffffffffffffff1602179055507f2fcc274c3b72dd483ab201bfa87295e3817e8b9b10693219873b722ca1af00c7828260405161045a929190612713565b60405180910390a15050565b6060600080600080546104789061276b565b80601f01602080910402602001604051908101604052809291908181526020018280546104a49061276b565b80156104f15780601f106104c6576101008083540402835291602001916104f1565b820191906000526020600020905b8154815290600101906020018083116104d457829003601f168201915b5050505050905060005b855181101561055057600061052b87838151811061051c5761051b61279c565b5b6020026020010151848861068d565b905080610100015192508060a001519350508080610548906127fa565b9150506104fb565b50809250509250929050565b60036020528060005260406000206000915054906101000a900473ffffffffffffffffffffffffffffffffffffffff1681565b600160009054906101000a900473ffffffffffffffffffffffffffffffffffffffff1681565b600080546105c29061276b565b80601f01602080910402602001604051908101604052809291908181526020018280546105ee9061276b565b801561063b5780601f106106105761010080835404028352916020019161063b565b820191906000526020600020905b81548152906001019060200180831161061e57829003601f168201915b505050505081565b606060006106518342610466565b91509150915091565b60026020528060005260406000206000915054906101000a900473ffffffffffffffffffffffffffffffffffffffff1681565b610695611e5e565b6106a284600001516107e2565b905060006106b4828360000151610967565b9050816040015160ff166106d2600083610adf90919063ffffffff16565b1461071a578082604001516040517fe861b2bd000000000000000000000000000000000000000000000000000000008152600401610711929190612873565b60405180910390fd5b80826101200181905250610732826080015184610b60565b610779578160800151836040517fa784f87e0000000000000000000000000000000000000000000000000000000081526004016107709291906128a3565b60405180910390fd5b610787838360a00151610b60565b6107ce578160a00151836040517fbd41036a0000000000000000000000000000000000000000000000000000000081526004016107c59291906128a3565b60405180910390fd5b6107da81838787610b73565b509392505050565b6107ea611e5e565b6107fe600083610c7a90919063ffffffff16565b816000019061ffff16908161ffff1681525050610825600283610ca990919063ffffffff16565b816020019060ff16908160ff168152505061084a600383610ca990919063ffffffff16565b816040019060ff16908160ff168152505061086f600483610cd490919063ffffffff16565b816060019063ffffffff16908163ffffffff168152505061089a600883610cd490919063ffffffff16565b816080019063ffffffff16908163ffffffff16815250506108c5600c83610cd490919063ffffffff16565b8160a0019063ffffffff16908163ffffffff16815250506108f0601083610c7a90919063ffffffff16565b8160c0019061ffff16908161ffff168152505061090e826012610d05565b8160e001819052506109598160e0015151601261092b91906128cc565b8260e00151516012855161093f9190612900565b6109499190612900565b84610d339092919063ffffffff16565b816101000181905250919050565b6060600061097484610dc8565b90505b61098081610de7565b610ad857600161ffff16816060015161ffff16146109d95780606001516040517f98a5f31a0000000000000000000000000000000000000000000000000000000081526004016109d09190612951565b60405180910390fd5b60008251036109f2576109eb81610dfd565b9150610a74565b610a0d81602001518260000151610e3490919063ffffffff16565b8251141580610a3c5750610a3a600082600001518360200151855186610eb090949392919063ffffffff16565b155b15610a73576040517fcbceee6f00000000000000000000000000000000000000000000000000000000815260040160405180910390fd5b5b8261ffff16816040015161ffff1614610aca578060400151836040517fa6ff8a8a000000000000000000000000000000000000000000000000000000008152600401610ac192919061296c565b60405180910390fd5b610ad381610ed4565b610977565b5092915050565b600080600090505b600115610b565783518310610aff57610afe612995565b5b6000610b148486610ca990919063ffffffff16565b60ff169050600181610b2691906128cc565b84610b3191906128cc565b935060008103610b415750610b56565b600182610b4e91906128cc565b915050610ae7565b8091505092915050565b60008082840360030b1215905092915050565b610b8a8360e001518561101a90919063ffffffff16565b610bd157838360e001516040517feaafc59b000000000000000000000000000000000000000000000000000000008152600401610bc89291906129c4565b60405180910390fd5b6000610be760008361108a90919063ffffffff16565b9050602b61ffff16816040015161ffff1603610c0d57610c088484836110b4565b610c73565b603061ffff16816040015161ffff1603610c3157610c2c8484836111ef565b610c72565b80604001516040517f61529e87000000000000000000000000000000000000000000000000000000008152600401610c699190612951565b60405180910390fd5b5b5050505050565b60008251600283610c8b91906128cc565b1115610c9657600080fd5b61ffff8260028501015116905092915050565b6000828281518110610cbe57610cbd61279c565b5b602001015160f81c60f81b60f81c905092915050565b60008251600483610ce591906128cc565b1115610cf057600080fd5b63ffffffff8260048501015116905092915050565b60606000610d138484610e34565b9050610d2a838286610d339092919063ffffffff16565b91505092915050565b606083518284610d4391906128cc565b1115610d4e57600080fd5b60008267ffffffffffffffff811115610d6a57610d69612184565b5b6040519080825280601f01601f191660200182016040528015610d9c5781602001600182028036833780820191505090505b5090506000806020830191508560208801019050610dbb828287611300565b8293505050509392505050565b610dd0611ed1565b610de0826101000151600061108a565b9050919050565b6000816000015151826020015110159050919050565b6060610e2d8260200151610e1984600001518560200151610e34565b8460000151610d339092919063ffffffff16565b9050919050565b6000808290505b600115610e9b5783518110610e5357610e52612995565b5b6000610e688286610ca990919063ffffffff16565b60ff169050600181610e7a91906128cc565b82610e8591906128cc565b915060008103610e955750610e9b565b50610e3b565b8281610ea79190612900565b91505092915050565b6000610ebd848484611364565b610ec8878785611364565b14905095945050505050565b8060c0015181602001818152505080600001515181602001511015611017576000610f0782600001518360200151610e34565b8260200151610f1691906128cc565b9050610f2f818360000151610c7a90919063ffffffff16565b826040019061ffff16908161ffff1681525050600281610f4f91906128cc565b9050610f68818360000151610c7a90919063ffffffff16565b826060019061ffff16908161ffff1681525050600281610f8891906128cc565b9050610fa1818360000151610cd490919063ffffffff16565b826080019063ffffffff16908163ffffffff1681525050600481610fc591906128cc565b90506000610fe0828460000151610c7a90919063ffffffff16565b61ffff169050600282610ff391906128cc565b9150818360a0018181525050808261100b91906128cc565b8360c001818152505050505b50565b60008060009050600061102e856000610adf565b9050600061103d856000610adf565b90505b80821115611067576110528684611390565b9250818061105f906129fb565b925050611040565b61107f83866000896113c7909392919063ffffffff16565b935050505092915050565b611092611ed1565b828160000181905250818160c00181815250506110ae81610ed4565b92915050565b60008160200151905060006110c885610dc8565b90505b6110d481610de7565b6111a857603061ffff16816040015161ffff161461112d5780604001516040517f61529e870000000000000000000000000000000000000000000000000000000081526004016111249190612951565b60405180910390fd5b600061113882611402565b90506000611153600083518461143b9092919063ffffffff16565b905061116181838989611511565b15611198576111768760e001518683856116a5565b1561118457505050506111ea565b838560c001818152505061119785610ed4565b5b50506111a381610ed4565b6110cb565b508360e001516040517f06cde0f30000000000000000000000000000000000000000000000000000000081526004016111e1919061265d565b60405180910390fd5b505050565b5b6111f981610de7565b6112ba57600061120882610dfd565b90506112218460e001518261182890919063ffffffff16565b611268578360e00151816040517fd700ae7e00000000000000000000000000000000000000000000000000000000815260040161125f9291906129c4565b60405180910390fd5b600061127383611402565b9050600061128e600083518461143b9092919063ffffffff16565b905061129c81838888611511565b156112a9575050506112fb565b5050506112b581610ed4565b6111f0565b8260e001516040517f06cde0f30000000000000000000000000000000000000000000000000000000081526004016112f2919061265d565b60405180910390fd5b505050565b5b6020811061133f578151835260208361131a91906128cc565b925060208261132991906128cc565b91506020816113389190612900565b9050611301565b60006001826020036101000a0390508019835116818551168181178652505050505050565b60008351828461137491906128cc565b111561137f57600080fd5b818360208601012090509392505050565b60006113a58284610ca990919063ffffffff16565b60ff166001836113b591906128cc565b6113bf91906128cc565b905092915050565b60006113e083838486516113db9190612900565b611364565b6113f786868789516113f29190612900565b611364565b149050949350505050565b60606114348260a001518360a001518460c001516114209190612900565b8460000151610d339092919063ffffffff16565b9050919050565b611443611f1c565b61146260008461145391906128cc565b85610c7a90919063ffffffff16565b816000019061ffff16908161ffff168152505061149460028461148591906128cc565b85610ca990919063ffffffff16565b816020019060ff16908160ff16815250506114c46003846114b591906128cc565b85610ca990919063ffffffff16565b816040019060ff16908160ff16815250506115026004846114e591906128cc565b6004846114f29190612900565b86610d339092919063ffffffff16565b81606001819052509392505050565b60006003856020015160ff161461152b576000905061169d565b826020015160ff16856040015160ff1614611549576000905061169d565b60006115548561184f565b90508360c0015161ffff168161ffff161461157357600091505061169d565b6000610100876000015161ffff16160361159157600091505061169d565b600060026000886040015160ff1660ff16815260200190815260200160002060009054906101000a900473ffffffffffffffffffffffffffffffffffffffff169050600073ffffffffffffffffffffffffffffffffffffffff168173ffffffffffffffffffffffffffffffffffffffff16036116125760009250505061169d565b8073ffffffffffffffffffffffffffffffffffffffff1663de8f50a187866000015187602001516040518463ffffffff1660e01b815260040161165793929190612a24565b602060405180830381865afa158015611674573d6000803e3d6000fd5b505050506040513d601f19601f820116820180604052508101906116989190612aa8565b925050505b949350505050565b6000806116b18361184f565b90505b6116bd85610de7565b61181a5760006116cc86610dfd565b90506116e1878261182890919063ffffffff16565b6117245786816040517fd700ae7e00000000000000000000000000000000000000000000000000000000815260040161171b9291906129c4565b60405180910390fd5b60006117568760a001518860a001518960c001516117429190612900565b8960000151611a979092919063ffffffff16565b90508261ffff16816000015161ffff161461177257505061180c565b856040015160ff16816020015160ff161461178e57505061180c565b611796611f4e565b6117b686518a516117a791906128cc565b82611b6d90919063ffffffff16565b506117ca8982611bd790919063ffffffff16565b506117de8682611bd790919063ffffffff16565b506117f6826040015182600001518460600151611bf9565b15611808576001945050505050611820565b5050505b61181585610ed4565b6116b4565b60009150505b949350505050565b60008151835114801561184757506118468360008460008751610eb0565b5b905092915050565b600061200082511115611897576040517f08c379a000000000000000000000000000000000000000000000000000000000815260040161188e90612b32565b60405180910390fd5b60008060005b601f85510181101561193757600081602087010151905085516020830111156118da57600060088388510302610100039050808183901c901b9150505b60087fff00ff00ff00ff00ff00ff00ff00ff00ff00ff00ff00ff00ff00ff00ff00ff008216901c840193507eff00ff00ff00ff00ff00ff00ff00ff00ff00ff00ff00ff00ff00ff00ff00ff8116830192505060208101905061189d565b5060107fffff0000ffff0000ffff0000ffff0000ffff0000ffff0000ffff0000ffff00008316901c7dffff0000ffff0000ffff0000ffff0000ffff0000ffff0000ffff0000ffff831601915060107fffff0000ffff0000ffff0000ffff0000ffff0000ffff0000ffff0000ffff00008216901c7dffff0000ffff0000ffff0000ffff0000ffff0000ffff0000ffff0000ffff821601905080600883901b01915060207fffffffff00000000ffffffff00000000ffffffff00000000ffffffff000000008316901c7bffffffff00000000ffffffff00000000ffffffff00000000ffffffff831601915060407fffffffffffffffff0000000000000000ffffffffffffffff00000000000000008316901c77ffffffffffffffff0000000000000000ffffffffffffffff8316019150608082901c6fffffffffffffffffffffffffffffffff831601915061ffff601083901c16820191508192505050919050565b611a9f611f68565b611abe600084611aaf91906128cc565b85610c7a90919063ffffffff16565b816000019061ffff16908161ffff1681525050611af0600284611ae191906128cc565b85610ca990919063ffffffff16565b816020019060ff16908160ff1681525050611b20600384611b1191906128cc565b85610ca990919063ffffffff16565b816040019060ff16908160ff1681525050611b5e600484611b4191906128cc565b600484611b4e9190612900565b86610d339092919063ffffffff16565b81606001819052509392505050565b611b75611f4e565b6000602083611b849190612b81565b14611bb057602082611b969190612b81565b6020611ba29190612900565b82611bad91906128cc565b91505b81836020018181525050604051808452600081528281016020016040525082905092915050565b611bdf611f4e565b611bf183846000015151848551611d2f565b905092915050565b60008073ffffffffffffffffffffffffffffffffffffffff16600360008660ff1660ff16815260200190815260200160002060009054906101000a900473ffffffffffffffffffffffffffffffffffffffff1673ffffffffffffffffffffffffffffffffffffffff1603611c705760009050611d28565b600360008560ff1660ff16815260200190815260200160002060009054906101000a900473ffffffffffffffffffffffffffffffffffffffff1673ffffffffffffffffffffffffffffffffffffffff1663f7e83aee84846040518363ffffffff1660e01b8152600401611ce49291906129c4565b602060405180830381865afa158015611d01573d6000803e3d6000fd5b505050506040513d601f19601f82011682018060405250810190611d259190612aa8565b90505b9392505050565b611d37611f4e565b8251821115611d4557600080fd5b84602001518285611d5691906128cc565b1115611d8b57611d8a856002611d7b88602001518887611d7691906128cc565b611e1e565b611d859190612bb2565b611e3a565b5b600080865180518760208301019350808887011115611daa5787860182525b60208701925050505b60208410611df15780518252602082611dcc91906128cc565b9150602081611ddb91906128cc565b9050602084611dea9190612900565b9350611db3565b60006001856020036101000a03905080198251168184511681811785525050508692505050949350505050565b600081831115611e3057829050611e34565b8190505b92915050565b600082600001519050611e4d8383611b6d565b50611e588382611bd7565b50505050565b604051806101400160405280600061ffff168152602001600060ff168152602001600060ff168152602001600063ffffffff168152602001600063ffffffff168152602001600063ffffffff168152602001600061ffff1681526020016060815260200160608152602001606081525090565b6040518060e001604052806060815260200160008152602001600061ffff168152602001600061ffff168152602001600063ffffffff16815260200160008152602001600081525090565b6040518060800160405280600061ffff168152602001600060ff168152602001600060ff168152602001606081525090565b604051806040016040528060608152602001600081525090565b6040518060800160405280600061ffff168152602001600060ff168152602001600060ff168152602001606081525090565b6000604051905090565b600080fd5b600080fd5b600060ff82169050919050565b611fc481611fae565b8114611fcf57600080fd5b50565b600081359050611fe181611fbb565b92915050565b600073ffffffffffffffffffffffffffffffffffffffff82169050919050565b600061201282611fe7565b9050919050565b600061202482612007565b9050919050565b61203481612019565b811461203f57600080fd5b50565b6000813590506120518161202b565b92915050565b6000806040838503121561206e5761206d611fa4565b5b600061207c85828601611fd2565b925050602061208d85828601612042565b9150509250929050565b6120a081612007565b81146120ab57600080fd5b50565b6000813590506120bd81612097565b92915050565b6000602082840312156120d9576120d8611fa4565b5b60006120e7848285016120ae565b91505092915050565b60006120fb82612007565b9050919050565b61210b816120f0565b811461211657600080fd5b50565b60008135905061212881612102565b92915050565b6000806040838503121561214557612144611fa4565b5b600061215385828601611fd2565b925050602061216485828601612119565b9150509250929050565b600080fd5b6000601f19601f8301169050919050565b7f4e487b7100000000000000000000000000000000000000000000000000000000600052604160045260246000fd5b6121bc82612173565b810181811067ffffffffffffffff821117156121db576121da612184565b5b80604052505050565b60006121ee611f9a565b90506121fa82826121b3565b919050565b600067ffffffffffffffff82111561221a57612219612184565b5b602082029050602081019050919050565b600080fd5b600080fd5b600080fd5b600080fd5b600067ffffffffffffffff82111561225a57612259612184565b5b61226382612173565b9050602081019050919050565b82818337600083830152505050565b600061229261228d8461223f565b6121e4565b9050828152602081018484840111156122ae576122ad61223a565b5b6122b9848285612270565b509392505050565b600082601f8301126122d6576122d561216e565b5b81356122e684826020860161227f565b91505092915050565b60006040828403121561230557612304612230565b5b61230f60406121e4565b9050600082013567ffffffffffffffff81111561232f5761232e612235565b5b61233b848285016122c1565b600083015250602082013567ffffffffffffffff81111561235f5761235e612235565b5b61236b848285016122c1565b60208301525092915050565b600061238a612385846121ff565b6121e4565b905080838252602082019050602084028301858111156123ad576123ac61222b565b5b835b818110156123f457803567ffffffffffffffff8111156123d2576123d161216e565b5b8086016123df89826122ef565b855260208501945050506020810190506123af565b5050509392505050565b600082601f8301126124135761241261216e565b5b8135612423848260208601612377565b91505092915050565b6000819050919050565b61243f8161242c565b811461244a57600080fd5b50565b60008135905061245c81612436565b92915050565b6000806040838503121561247957612478611fa4565b5b600083013567ffffffffffffffff81111561249757612496611fa9565b5b6124a3858286016123fe565b92505060206124b48582860161244d565b9150509250929050565b600081519050919050565b600082825260208201905092915050565b60005b838110156124f85780820151818401526020810190506124dd565b60008484015250505050565b600061250f826124be565b61251981856124c9565b93506125298185602086016124da565b61253281612173565b840191505092915050565b600063ffffffff82169050919050565b6125568161253d565b82525050565b600060408201905081810360008301526125768185612504565b9050612585602083018461254d565b9392505050565b6000602082840312156125a2576125a1611fa4565b5b60006125b084828501611fd2565b91505092915050565b6000819050919050565b60006125de6125d96125d484611fe7565b6125b9565b611fe7565b9050919050565b60006125f0826125c3565b9050919050565b6000612602826125e5565b9050919050565b612612816125f7565b82525050565b600060208201905061262d6000830184612609565b92915050565b61263c81612007565b82525050565b60006020820190506126576000830184612633565b92915050565b600060208201905081810360008301526126778184612504565b905092915050565b60006020828403121561269557612694611fa4565b5b600082013567ffffffffffffffff8111156126b3576126b2611fa9565b5b6126bf848285016123fe565b91505092915050565b60006126d3826125e5565b9050919050565b6126e3816126c8565b82525050565b60006020820190506126fe60008301846126da565b92915050565b61270d81611fae565b82525050565b60006040820190506127286000830185612704565b6127356020830184612633565b9392505050565b7f4e487b7100000000000000000000000000000000000000000000000000000000600052602260045260246000fd5b6000600282049050600182168061278357607f821691505b6020821081036127965761279561273c565b5b50919050565b7f4e487b7100000000000000000000000000000000000000000000000000000000600052603260045260246000fd5b7f4e487b7100000000000000000000000000000000000000000000000000000000600052601160045260246000fd5b60006128058261242c565b91507fffffffffffffffffffffffffffffffffffffffffffffffffffffffffffffffff8203612837576128366127cb565b5b600182019050919050565b600061285d61285861285384611fae565b6125b9565b61242c565b9050919050565b61286d81612842565b82525050565b6000604082019050818103600083015261288d8185612504565b905061289c6020830184612864565b9392505050565b60006040820190506128b8600083018561254d565b6128c5602083018461254d565b9392505050565b60006128d78261242c565b91506128e28361242c565b92508282019050808211156128fa576128f96127cb565b5b92915050565b600061290b8261242c565b91506129168361242c565b925082820390508181111561292e5761292d6127cb565b5b92915050565b600061ffff82169050919050565b61294b81612934565b82525050565b60006020820190506129666000830184612942565b92915050565b60006040820190506129816000830185612942565b61298e6020830184612942565b9392505050565b7f4e487b7100000000000000000000000000000000000000000000000000000000600052600160045260246000fd5b600060408201905081810360008301526129de8185612504565b905081810360208301526129f28184612504565b90509392505050565b6000612a068261242c565b915060008203612a1957612a186127cb565b5b600182039050919050565b60006060820190508181036000830152612a3e8186612504565b90508181036020830152612a528185612504565b90508181036040830152612a668184612504565b9050949350505050565b60008115159050919050565b612a8581612a70565b8114612a9057600080fd5b50565b600081519050612aa281612a7c565b92915050565b600060208284031215612abe57612abd611fa4565b5b6000612acc84828501612a93565b91505092915050565b600082825260208201905092915050565b7f4c6f6e67206b657973206e6f74207065726d6974746564000000000000000000600082015250565b6000612b1c601783612ad5565b9150612b2782612ae6565b602082019050919050565b60006020820190508181036000830152612b4b81612b0f565b9050919050565b7f4e487b7100000000000000000000000000000000000000000000000000000000600052601260045260246000fd5b6000612b8c8261242c565b9150612b978361242c565b925082612ba757612ba6612b52565b5b828206905092915050565b6000612bbd8261242c565b9150612bc88361242c565b9250828202612bd68161242c565b91508282048414831517612bed57612bec6127cb565b5b509291505056fea264697066735822122025ca2e75d3bfc58f949f0e024617dedbe138fe7588aa9eff68fdde2d2f3cd15264736f6c63430008110033",
  "devdoc": {
    "kind": "dev",
    "methods": {
      "constructor": {
        "details": "Constructor.",
        "params": {
          "_anchors": "The binary format RR entries for the root DS records."
        }
      },
      "setAlgorithm(uint8,address)": {
        "details": "Sets the contract address for a signature verification algorithm.      Callable only by the owner.",
        "params": {
          "algo": "The address of the algorithm contract.",
          "id": "The algorithm ID"
        }
      },
      "setDigest(uint8,address)": {
        "details": "Sets the contract address for a digest verification algorithm.      Callable only by the owner.",
        "params": {
          "digest": "The address of the digest contract.",
          "id": "The digest ID"
        }
      },
      "verifyRRSet((bytes,bytes)[])": {
        "details": "Takes a chain of signed DNS records, verifies them, and returns the data from the last record set in the chain.      Reverts if the records do not form an unbroken chain of trust to the DNSSEC anchor records.",
        "params": {
          "input": "A list of signed RRSets."
        },
        "returns": {
          "inception": "The inception time of the signed record set.",
          "rrs": "The RRData from the last RRSet in the chain."
        }
      },
      "verifyRRSet((bytes,bytes)[],uint256)": {
        "details": "Takes a chain of signed DNS records, verifies them, and returns the data from the last record set in the chain.      Reverts if the records do not form an unbroken chain of trust to the DNSSEC anchor records.",
        "params": {
          "input": "A list of signed RRSets.",
          "now": "The Unix timestamp to validate the records at."
        },
        "returns": {
          "inception": "The inception time of the signed record set.",
          "rrs": "The RRData from the last RRSet in the chain."
        }
      }
    },
    "version": 1
  },
  "userdoc": {
    "kind": "user",
    "methods": {},
    "version": 1
  },
  "storageLayout": {
    "storage": [
      {
        "astId": 6113,
        "contract": "contracts/dnssec-oracle/DNSSECImpl.sol:DNSSECImpl",
        "label": "anchors",
        "offset": 0,
        "slot": "0",
        "type": "t_bytes_storage"
      },
      {
        "astId": 7090,
        "contract": "contracts/dnssec-oracle/DNSSECImpl.sol:DNSSECImpl",
        "label": "owner",
        "offset": 0,
        "slot": "1",
        "type": "t_address"
      },
      {
        "astId": 6245,
        "contract": "contracts/dnssec-oracle/DNSSECImpl.sol:DNSSECImpl",
        "label": "algorithms",
        "offset": 0,
        "slot": "2",
        "type": "t_mapping(t_uint8,t_contract(Algorithm)8253)"
      },
      {
        "astId": 6250,
        "contract": "contracts/dnssec-oracle/DNSSECImpl.sol:DNSSECImpl",
        "label": "digests",
        "offset": 0,
        "slot": "3",
        "type": "t_mapping(t_uint8,t_contract(Digest)10094)"
      }
    ],
    "types": {
      "t_address": {
        "encoding": "inplace",
        "label": "address",
        "numberOfBytes": "20"
      },
      "t_bytes_storage": {
        "encoding": "bytes",
        "label": "bytes",
        "numberOfBytes": "32"
      },
      "t_contract(Algorithm)8253": {
        "encoding": "inplace",
        "label": "contract Algorithm",
        "numberOfBytes": "20"
      },
      "t_contract(Digest)10094": {
        "encoding": "inplace",
        "label": "contract Digest",
        "numberOfBytes": "20"
      },
      "t_mapping(t_uint8,t_contract(Algorithm)8253)": {
        "encoding": "mapping",
        "key": "t_uint8",
        "label": "mapping(uint8 => contract Algorithm)",
        "numberOfBytes": "32",
        "value": "t_contract(Algorithm)8253"
      },
      "t_mapping(t_uint8,t_contract(Digest)10094)": {
        "encoding": "mapping",
        "key": "t_uint8",
        "label": "mapping(uint8 => contract Digest)",
        "numberOfBytes": "32",
        "value": "t_contract(Digest)10094"
      },
      "t_uint8": {
        "encoding": "inplace",
        "label": "uint8",
        "numberOfBytes": "1"
      }
    }
  }
}