{
  "address": "0x7861158d69B3591Dd89EB603352c99aA1B18b815",
  "abi": [
    {
      "inputs": [],
      "stateMutability": "nonpayable",
      "type": "constructor"
    },
    {
      "anonymous": false,
      "inputs": [
        {
          "indexed": true,
          "internalType": "address",
          "name": "owner",
          "type": "address"
        },
        {
          "indexed": true,
          "internalType": "address",
          "name": "operator",
          "type": "address"
        },
        {
          "indexed": false,
          "internalType": "bool",
          "name": "approved",
          "type": "bool"
        }
      ],
      "name": "ApprovalForAll",
      "type": "event"
    },
    {
      "anonymous": false,
      "inputs": [
        {
          "indexed": true,
          "internalType": "bytes32",
          "name": "node",
          "type": "bytes32"
        },
        {
          "indexed": true,
          "internalType": "bytes32",
          "name": "label",
          "type": "bytes32"
        },
        {
          "indexed": false,
          "internalType": "address",
          "name": "owner",
          "type": "address"
        }
      ],
      "name": "NewOwner",
      "type": "event"
    },
    {
      "anonymous": false,
      "inputs": [
        {
          "indexed": true,
          "internalType": "bytes32",
          "name": "node",
          "type": "bytes32"
        },
        {
          "indexed": false,
          "internalType": "address",
          "name": "resolver",
          "type": "address"
        }
      ],
      "name": "NewResolver",
      "type": "event"
    },
    {
      "anonymous": false,
      "inputs": [
        {
          "indexed": true,
          "internalType": "bytes32",
          "name": "node",
          "type": "bytes32"
        },
        {
          "indexed": false,
          "internalType": "uint64",
          "name": "ttl",
          "type": "uint64"
        }
      ],
      "name": "NewTTL",
      "type": "event"
    },
    {
      "anonymous": false,
      "inputs": [
        {
          "indexed": true,
          "internalType": "bytes32",
          "name": "node",
          "type": "bytes32"
        },
        {
          "indexed": false,
          "internalType": "address",
          "name": "owner",
          "type": "address"
        }
      ],
      "name": "Transfer",
      "type": "event"
    },
    {
      "inputs": [
        {
          "internalType": "address",
          "name": "owner",
          "type": "address"
        },
        {
          "internalType": "address",
          "name": "operator",
          "type": "address"
        }
      ],
      "name": "isApprovedForAll",
      "outputs": [
        {
          "internalType": "bool",
          "name": "",
          "type": "bool"
        }
      ],
      "stateMutability": "view",
      "type": "function"
    },
    {
      "inputs": [
        {
          "internalType": "bytes32",
          "name": "node",
          "type": "bytes32"
        }
      ],
      "name": "owner",
      "outputs": [
        {
          "internalType": "address",
          "name": "",
          "type": "address"
        }
      ],
      "stateMutability": "view",
      "type": "function"
    },
    {
      "inputs": [
        {
          "internalType": "bytes32",
          "name": "node",
          "type": "bytes32"
        }
      ],
      "name": "recordExists",
      "outputs": [
        {
          "internalType": "bool",
          "name": "",
          "type": "bool"
        }
      ],
      "stateMutability": "view",
      "type": "function"
    },
    {
      "inputs": [
        {
          "internalType": "bytes32",
          "name": "node",
          "type": "bytes32"
        }
      ],
      "name": "resolver",
      "outputs": [
        {
          "internalType": "address",
          "name": "",
          "type": "address"
        }
      ],
      "stateMutability": "view",
      "type": "function"
    },
    {
      "inputs": [
        {
          "internalType": "address",
          "name": "operator",
          "type": "address"
        },
        {
          "internalType": "bool",
          "name": "approved",
          "type": "bool"
        }
      ],
      "name": "setApprovalForAll",
      "outputs": [],
      "stateMutability": "nonpayable",
      "type": "function"
    },
    {
      "inputs": [
        {
          "internalType": "bytes32",
          "name": "node",
          "type": "bytes32"
        },
        {
          "internalType": "address",
          "name": "owner",
          "type": "address"
        }
      ],
      "name": "setOwner",
      "outputs": [],
      "stateMutability": "nonpayable",
      "type": "function"
    },
    {
      "inputs": [
        {
          "internalType": "bytes32",
          "name": "node",
          "type": "bytes32"
        },
        {
          "internalType": "address",
          "name": "owner",
          "type": "address"
        },
        {
          "internalType": "address",
          "name": "resolver",
          "type": "address"
        },
        {
          "internalType": "uint64",
          "name": "ttl",
          "type": "uint64"
        }
      ],
      "name": "setRecord",
      "outputs": [],
      "stateMutability": "nonpayable",
      "type": "function"
    },
    {
      "inputs": [
        {
          "internalType": "bytes32",
          "name": "node",
          "type": "bytes32"
        },
        {
          "internalType": "address",
          "name": "resolver",
          "type": "address"
        }
      ],
      "name": "setResolver",
      "outputs": [],
      "stateMutability": "nonpayable",
      "type": "function"
    },
    {
      "inputs": [
        {
          "internalType": "bytes32",
          "name": "node",
          "type": "bytes32"
        },
        {
          "internalType": "bytes32",
          "name": "label",
          "type": "bytes32"
        },
        {
          "internalType": "address",
          "name": "owner",
          "type": "address"
        }
      ],
      "name": "setSubnodeOwner",
      "outputs": [
        {
          "internalType": "bytes32",
          "name": "",
          "type": "bytes32"
        }
      ],
      "stateMutability": "nonpayable",
      "type": "function"
    },
    {
      "inputs": [
        {
          "internalType": "bytes32",
          "name": "node",
          "type": "bytes32"
        },
        {
          "internalType": "bytes32",
          "name": "label",
          "type": "bytes32"
        },
        {
          "internalType": "address",
          "name": "owner",
          "type": "address"
        },
        {
          "internalType": "address",
          "name": "resolver",
          "type": "address"
        },
        {
          "internalType": "uint64",
          "name": "ttl",
          "type": "uint64"
        }
      ],
      "name": "setSubnodeRecord",
      "outputs": [],
      "stateMutability": "nonpayable",
      "type": "function"
    },
    {
      "inputs": [
        {
          "internalType": "bytes32",
          "name": "node",
          "type": "bytes32"
        },
        {
          "internalType": "uint64",
          "name": "ttl",
          "type": "uint64"
        }
      ],
      "name": "setTTL",
      "outputs": [],
      "stateMutability": "nonpayable",
      "type": "function"
    },
    {
      "inputs": [
        {
          "internalType": "bytes32",
          "name": "node",
          "type": "bytes32"
        }
      ],
      "name": "ttl",
      "outputs": [
        {
          "internalType": "uint64",
          "name": "",
          "type": "uint64"
        }
      ],
      "stateMutability": "view",
      "type": "function"
    }
  ],
  "transactionHash": "0xf6c615734ffb0538e6fd50176fb06ffd8490a2d9f69ede0ffdb3e3705bbd80b7",
  "args": [],
  "numDeployments": 1,
  "solcInputHash": "3004fb69145baf262ffd181d54fcaf95",
  "bytecode": "0x608060405234801561001057600080fd5b50336000808060001b815260200190815260200160002060000160006101000a81548173ffffffffffffffffffffffffffffffffffffffff021916908373ffffffffffffffffffffffffffffffffffffffff16021790555061123d806100776000396000f3fe608060405234801561001057600080fd5b50600436106100b45760003560e01c80635b0fc9c3116100715780635b0fc9c3146101b15780635ef2c7f0146101cd578063a22cb465146101e9578063cf40882314610205578063e985e9c514610221578063f79fe53814610251576100b4565b80630178b8bf146100b957806302571be3146100e957806306ab59231461011957806314ab90381461014957806316a25cbd146101655780631896f70a14610195575b600080fd5b6100d360048036038101906100ce9190610dda565b610281565b6040516100e09190610e48565b60405180910390f35b61010360048036038101906100fe9190610dda565b6102c0565b6040516101109190610e48565b60405180910390f35b610133600480360381019061012e9190610e8f565b610342565b6040516101409190610ef1565b60405180910390f35b610163600480360381019061015e9190610f4c565b6104c5565b005b61017f600480360381019061017a9190610dda565b610643565b60405161018c9190610f9b565b60405180910390f35b6101af60048036038101906101aa9190610fb6565b610676565b005b6101cb60048036038101906101c69190610fb6565b61080c565b005b6101e760048036038101906101e29190610ff6565b610958565b005b61020360048036038101906101fe91906110a9565b61097a565b005b61021f600480360381019061021a91906110e9565b610a77565b005b61023b60048036038101906102369190611150565b610a92565b604051610248919061119f565b60405180910390f35b61026b60048036038101906102669190610dda565b610b26565b604051610278919061119f565b60405180910390f35b600080600083815260200190815260200160002060010160009054906101000a900473ffffffffffffffffffffffffffffffffffffffff169050919050565b60008060008084815260200190815260200160002060000160009054906101000a900473ffffffffffffffffffffffffffffffffffffffff1690503073ffffffffffffffffffffffffffffffffffffffff168173ffffffffffffffffffffffffffffffffffffffff160361033857600091505061033d565b809150505b919050565b600083600080600083815260200190815260200160002060000160009054906101000a900473ffffffffffffffffffffffffffffffffffffffff1690503373ffffffffffffffffffffffffffffffffffffffff168173ffffffffffffffffffffffffffffffffffffffff16148061043f5750600160008273ffffffffffffffffffffffffffffffffffffffff1673ffffffffffffffffffffffffffffffffffffffff16815260200190815260200160002060003373ffffffffffffffffffffffffffffffffffffffff1673ffffffffffffffffffffffffffffffffffffffff16815260200190815260200160002060009054906101000a900460ff165b61044857600080fd5b6000868660405160200161045d9291906111db565b60405160208183030381529060405280519060200120905061047f8186610b94565b85877fce0457fe73731f824cc272376169235128c118b49d344817417c6d108d155e82876040516104b09190610e48565b60405180910390a38093505050509392505050565b81600080600083815260200190815260200160002060000160009054906101000a900473ffffffffffffffffffffffffffffffffffffffff1690503373ffffffffffffffffffffffffffffffffffffffff168173ffffffffffffffffffffffffffffffffffffffff1614806105c05750600160008273ffffffffffffffffffffffffffffffffffffffff1673ffffffffffffffffffffffffffffffffffffffff16815260200190815260200160002060003373ffffffffffffffffffffffffffffffffffffffff1673ffffffffffffffffffffffffffffffffffffffff16815260200190815260200160002060009054906101000a900460ff165b6105c957600080fd5b837f1d4f9bbfc9cab89d66e1a1562f2233ccbf1308cb4f63de2ead5787adddb8fa68846040516105f99190610f9b565b60405180910390a28260008086815260200190815260200160002060010160146101000a81548167ffffffffffffffff021916908367ffffffffffffffff16021790555050505050565b600080600083815260200190815260200160002060010160149054906101000a900467ffffffffffffffff169050919050565b81600080600083815260200190815260200160002060000160009054906101000a900473ffffffffffffffffffffffffffffffffffffffff1690503373ffffffffffffffffffffffffffffffffffffffff168173ffffffffffffffffffffffffffffffffffffffff1614806107715750600160008273ffffffffffffffffffffffffffffffffffffffff1673ffffffffffffffffffffffffffffffffffffffff16815260200190815260200160002060003373ffffffffffffffffffffffffffffffffffffffff1673ffffffffffffffffffffffffffffffffffffffff16815260200190815260200160002060009054906101000a900460ff165b61077a57600080fd5b837f335721b01866dc23fbee8b6b2c7b1e14d6f05c28cd35a2c934239f94095602a0846040516107aa9190610e48565b60405180910390a28260008086815260200190815260200160002060010160006101000a81548173ffffffffffffffffffffffffffffffffffffffff021916908373ffffffffffffffffffffffffffffffffffffffff16021790555050505050565b81600080600083815260200190815260200160002060000160009054906101000a900473ffffffffffffffffffffffffffffffffffffffff1690503373ffffffffffffffffffffffffffffffffffffffff168173ffffffffffffffffffffffffffffffffffffffff1614806109075750600160008273ffffffffffffffffffffffffffffffffffffffff1673ffffffffffffffffffffffffffffffffffffffff16815260200190815260200160002060003373ffffffffffffffffffffffffffffffffffffffff1673ffffffffffffffffffffffffffffffffffffffff16815260200190815260200160002060009054906101000a900460ff165b61091057600080fd5b61091a8484610b94565b837fd4735d920b0f87494915f556dd9b54c8f309026070caea5c737245152564d2668460405161094a9190610e48565b60405180910390a250505050565b6000610965868686610342565b9050610972818484610bec565b505050505050565b80600160003373ffffffffffffffffffffffffffffffffffffffff1673ffffffffffffffffffffffffffffffffffffffff16815260200190815260200160002060008473ffffffffffffffffffffffffffffffffffffffff1673ffffffffffffffffffffffffffffffffffffffff16815260200190815260200160002060006101000a81548160ff0219169083151502179055508173ffffffffffffffffffffffffffffffffffffffff163373ffffffffffffffffffffffffffffffffffffffff167f17307eab39ab6107e8899845ad3d59bd9653f200f220920489ca2b5937696c3183604051610a6b919061119f565b60405180910390a35050565b610a81848461080c565b610a8c848383610bec565b50505050565b6000600160008473ffffffffffffffffffffffffffffffffffffffff1673ffffffffffffffffffffffffffffffffffffffff16815260200190815260200160002060008373ffffffffffffffffffffffffffffffffffffffff1673ffffffffffffffffffffffffffffffffffffffff16815260200190815260200160002060009054906101000a900460ff16905092915050565b60008073ffffffffffffffffffffffffffffffffffffffff1660008084815260200190815260200160002060000160009054906101000a900473ffffffffffffffffffffffffffffffffffffffff1673ffffffffffffffffffffffffffffffffffffffff1614159050919050565b8060008084815260200190815260200160002060000160006101000a81548173ffffffffffffffffffffffffffffffffffffffff021916908373ffffffffffffffffffffffffffffffffffffffff1602179055505050565b60008084815260200190815260200160002060010160009054906101000a900473ffffffffffffffffffffffffffffffffffffffff1673ffffffffffffffffffffffffffffffffffffffff168273ffffffffffffffffffffffffffffffffffffffff1614610ce1578160008085815260200190815260200160002060010160006101000a81548173ffffffffffffffffffffffffffffffffffffffff021916908373ffffffffffffffffffffffffffffffffffffffff160217905550827f335721b01866dc23fbee8b6b2c7b1e14d6f05c28cd35a2c934239f94095602a083604051610cd89190610e48565b60405180910390a25b60008084815260200190815260200160002060010160149054906101000a900467ffffffffffffffff1667ffffffffffffffff168167ffffffffffffffff1614610d9a578060008085815260200190815260200160002060010160146101000a81548167ffffffffffffffff021916908367ffffffffffffffff160217905550827f1d4f9bbfc9cab89d66e1a1562f2233ccbf1308cb4f63de2ead5787adddb8fa6882604051610d919190610f9b565b60405180910390a25b505050565b600080fd5b6000819050919050565b610db781610da4565b8114610dc257600080fd5b50565b600081359050610dd481610dae565b92915050565b600060208284031215610df057610def610d9f565b5b6000610dfe84828501610dc5565b91505092915050565b600073ffffffffffffffffffffffffffffffffffffffff82169050919050565b6000610e3282610e07565b9050919050565b610e4281610e27565b82525050565b6000602082019050610e5d6000830184610e39565b92915050565b610e6c81610e27565b8114610e7757600080fd5b50565b600081359050610e8981610e63565b92915050565b600080600060608486031215610ea857610ea7610d9f565b5b6000610eb686828701610dc5565b9350506020610ec786828701610dc5565b9250506040610ed886828701610e7a565b9150509250925092565b610eeb81610da4565b82525050565b6000602082019050610f066000830184610ee2565b92915050565b600067ffffffffffffffff82169050919050565b610f2981610f0c565b8114610f3457600080fd5b50565b600081359050610f4681610f20565b92915050565b60008060408385031215610f6357610f62610d9f565b5b6000610f7185828601610dc5565b9250506020610f8285828601610f37565b9150509250929050565b610f9581610f0c565b82525050565b6000602082019050610fb06000830184610f8c565b92915050565b60008060408385031215610fcd57610fcc610d9f565b5b6000610fdb85828601610dc5565b9250506020610fec85828601610e7a565b9150509250929050565b600080600080600060a0868803121561101257611011610d9f565b5b600061102088828901610dc5565b955050602061103188828901610dc5565b945050604061104288828901610e7a565b935050606061105388828901610e7a565b925050608061106488828901610f37565b9150509295509295909350565b60008115159050919050565b61108681611071565b811461109157600080fd5b50565b6000813590506110a38161107d565b92915050565b600080604083850312156110c0576110bf610d9f565b5b60006110ce85828601610e7a565b92505060206110df85828601611094565b9150509250929050565b6000806000806080858703121561110357611102610d9f565b5b600061111187828801610dc5565b945050602061112287828801610e7a565b935050604061113387828801610e7a565b925050606061114487828801610f37565b91505092959194509250565b6000806040838503121561116757611166610d9f565b5b600061117585828601610e7a565b925050602061118685828601610e7a565b9150509250929050565b61119981611071565b82525050565b60006020820190506111b46000830184611190565b92915050565b6000819050919050565b6111d56111d082610da4565b6111ba565b82525050565b60006111e782856111c4565b6020820191506111f782846111c4565b602082019150819050939250505056fea26469706673582212209664d19fa0b5996aedaba58109964560e4e61dfc4026b1e0165546fc8cafee1064736f6c63430008110033",
  "devdoc": {
    "kind": "dev",
    "methods": {
      "constructor": {
        "details": "Constructs a new ENS registry."
      },
      "isApprovedForAll(address,address)": {
        "details": "Query if an address is an authorized operator for another address.",
        "params": {
          "operator": "The address that acts on behalf of the owner.",
          "owner": "The address that owns the records."
        },
        "returns": {
          "_0": "True if `operator` is an approved operator for `owner`, false otherwise."
        }
      },
      "owner(bytes32)": {
        "details": "Returns the address that owns the specified node.",
        "params": {
          "node": "The specified node."
        },
        "returns": {
          "_0": "address of the owner."
        }
      },
      "recordExists(bytes32)": {
        "details": "Returns whether a record has been imported to the registry.",
        "params": {
          "node": "The specified node."
        },
        "returns": {
          "_0": "Bool if record exists"
        }
      },
      "resolver(bytes32)": {
        "details": "Returns the address of the resolver for the specified node.",
        "params": {
          "node": "The specified node."
        },
        "returns": {
          "_0": "address of the resolver."
        }
      },
      "setApprovalForAll(address,bool)": {
        "details": "Enable or disable approval for a third party (\"operator\") to manage  all of `msg.sender`'s ENS records. Emits the ApprovalForAll event.",
        "params": {
          "approved": "True if the operator is approved, false to revoke approval.",
          "operator": "Address to add to the set of authorized operators."
        }
      },
      "setOwner(bytes32,address)": {
        "details": "Transfers ownership of a node to a new address. May only be called by the current owner of the node.",
        "params": {
          "node": "The node to transfer ownership of.",
          "owner": "The address of the new owner."
        }
      },
      "setRecord(bytes32,address,address,uint64)": {
        "details": "Sets the record for a node.",
        "params": {
          "node": "The node to update.",
          "owner": "The address of the new owner.",
          "resolver": "The address of the resolver.",
          "ttl": "The TTL in seconds."
        }
      },
      "setResolver(bytes32,address)": {
        "details": "Sets the resolver address for the specified node.",
        "params": {
          "node": "The node to update.",
          "resolver": "The address of the resolver."
        }
      },
      "setSubnodeOwner(bytes32,bytes32,address)": {
        "details": "Transfers ownership of a subnode keccak256(node, label) to a new address. May only be called by the owner of the parent node.",
        "params": {
          "label": "The hash of the label specifying the subnode.",
          "node": "The parent node.",
          "owner": "The address of the new owner."
        }
      },
      "setSubnodeRecord(bytes32,bytes32,address,address,uint64)": {
        "details": "Sets the record for a subnode.",
        "params": {
          "label": "The hash of the label specifying the subnode.",
          "node": "The parent node.",
          "owner": "The address of the new owner.",
          "resolver": "The address of the resolver.",
          "ttl": "The TTL in seconds."
        }
      },
      "setTTL(bytes32,uint64)": {
        "details": "Sets the TTL for the specified node.",
        "params": {
          "node": "The node to update.",
          "ttl": "The TTL in seconds."
        }
      },
      "ttl(bytes32)": {
        "details": "Returns the TTL of a node, and any records associated with it.",
        "params": {
          "node": "The specified node."
        },
        "returns": {
          "_0": "ttl of the node."
        }
      }
    },
    "version": 1
  },
  "userdoc": {
    "kind": "user",
    "methods": {},
    "notice": "The ENS registry contract.",
    "version": 1
  },
  "storageLayout": {
    "storage": [
      {
        "astId": 13391,
        "contract": "contracts/registry/ENSRegistry.sol:ENSRegistry",
        "label": "records",
        "offset": 0,
        "slot": "0",
        "type": "t_mapping(t_bytes32,t_struct(Record)13386_storage)"
      },
      {
        "astId": 13397,
        "contract": "contracts/registry/ENSRegistry.sol:ENSRegistry",
        "label": "operators",
        "offset": 0,
        "slot": "1",
        "type": "t_mapping(t_address,t_mapping(t_address,t_bool))"
      }
    ],
    "types": {
      "t_address": {
        "encoding": "inplace",
        "label": "address",
        "numberOfBytes": "20"
      },
      "t_bool": {
        "encoding": "inplace",
        "label": "bool",
        "numberOfBytes": "1"
      },
      "t_bytes32": {
        "encoding": "inplace",
        "label": "bytes32",
        "numberOfBytes": "32"
      },
      "t_mapping(t_address,t_bool)": {
        "encoding": "mapping",
        "key": "t_address",
        "label": "mapping(address => bool)",
        "numberOfBytes": "32",
        "value": "t_bool"
      },
      "t_mapping(t_address,t_mapping(t_address,t_bool))": {
        "encoding": "mapping",
        "key": "t_address",
        "label": "mapping(address => mapping(address => bool))",
        "numberOfBytes": "32",
        "value": "t_mapping(t_address,t_bool)"
      },
      "t_mapping(t_bytes32,t_struct(Record)13386_storage)": {
        "encoding": "mapping",
        "key": "t_bytes32",
        "label": "mapping(bytes32 => struct ENSRegistry.Record)",
        "numberOfBytes": "32",
        "value": "t_struct(Record)13386_storage"
      },
      "t_struct(Record)13386_storage": {
        "encoding": "inplace",
        "label": "struct ENSRegistry.Record",
        "members": [
          {
            "astId": 13381,
            "contract": "contracts/registry/ENSRegistry.sol:ENSRegistry",
            "label": "owner",
            "offset": 0,
            "slot": "0",
            "type": "t_address"
          },
          {
            "astId": 13383,
            "contract": "contracts/registry/ENSRegistry.sol:ENSRegistry",
            "label": "resolver",
            "offset": 0,
            "slot": "1",
            "type": "t_address"
          },
          {
            "astId": 13385,
            "contract": "contracts/registry/ENSRegistry.sol:ENSRegistry",
            "label": "ttl",
            "offset": 20,
            "slot": "1",
            "type": "t_uint64"
          }
        ],
        "numberOfBytes": "64"
      },
      "t_uint64": {
        "encoding": "inplace",
        "label": "uint64",
        "numberOfBytes": "8"
      }
    }
  }
}