{
  "address": "0x57665Fe36B6d0D78E7Ab4bD5F1C0DD879efA8804",
  "abi": [
    {
      "inputs": [
        {
          "internalType": "bytes",
          "name": "key",
          "type": "bytes"
        },
        {
          "internalType": "bytes",
          "name": "data",
          "type": "bytes"
        },
        {
          "internalType": "bytes",
          "name": "sig",
          "type": "bytes"
        }
      ],
      "name": "verify",
      "outputs": [
        {
          "internalType": "bool",
          "name": "",
          "type": "bool"
        }
      ],
      "stateMutability": "view",
      "type": "function"
    }
  ],
  "transactionHash": "0x019e9f1857b88c495166066bab98f017e57953e4a0ce04b9d7f8f610b63b48b5",
  "args": [],
  "numDeployments": 1,
  "solcInputHash": "3004fb69145baf262ffd181d54fcaf95",
  "bytecode": "0x608060405234801561001057600080fd5b50610f35806100206000396000f3fe608060405234801561001057600080fd5b506004361061002b5760003560e01c8063de8f50a114610030575b600080fd5b61004a60048036038101906100459190610bdc565b610060565b6040516100579190610cab565b60405180910390f35b600060608060006100bf60048b8b8080601f016020809104026020016040519081016040528093929190818152602001838380828437600081840152601f19601f8201169050808301925050505050505061040390919063ffffffff16565b60ff16905060008161ffff16146101be5761012e60058261ffff168c8c8080601f016020809104026020016040519081016040528093929190818152602001838380828437600081840152601f19601f8201169050808301925050505050505061042e9092919063ffffffff16565b92506101b76005826101409190610d03565b61ffff1660058361ffff168d8d90506101599190610d43565b6101639190610d43565b8c8c8080601f016020809104026020016040519081016040528093929190818152602001838380828437600081840152601f19601f8201169050808301925050505050505061042e9092919063ffffffff16565b9150610302565b61021660058b8b8080601f016020809104026020016040519081016040528093929190818152602001838380828437600081840152601f19601f820116905080830192505050505050506104c390919063ffffffff16565b905061027660078261ffff168c8c8080601f016020809104026020016040519081016040528093929190818152602001838380828437600081840152601f19601f8201169050808301925050505050505061042e9092919063ffffffff16565b92506102ff6007826102889190610d03565b61ffff1660078361ffff168d8d90506102a19190610d43565b6102ab9190610d43565b8c8c8080601f016020809104026020016040519081016040528093929190818152602001838380828437600081840152601f19601f8201169050808301925050505050505061042e9092919063ffffffff16565b91505b6000606061035584868a8a8080601f016020809104026020016040519081016040528093929190818152602001838380828437600081840152601f19601f820116905080830192505050505050506104f2565b80925081935050508180156103f25750610385601482516103769190610d43565b8261050d90919063ffffffff16565b6bffffffffffffffffffffffff19166103e18b8b8080601f016020809104026020016040519081016040528093929190818152602001838380828437600081840152601f19601f8201169050808301925050505050505061055a565b6bffffffffffffffffffffffff1916145b955050505050509695505050505050565b600082828151811061041857610417610d77565b5b602001015160f81c60f81b60f81c905092915050565b60608351828461043e9190610da6565b111561044957600080fd5b60008267ffffffffffffffff81111561046557610464610dda565b5b6040519080825280601f01601f1916602001820160405280156104975781602001600182028036833780820191505090505b50905060008060208301915085602088010190506104b6828287610a69565b8293505050509392505050565b600082516002836104d49190610da6565b11156104df57600080fd5b61ffff8260028501015116905092915050565b60006060610501838587610acd565b91509150935093915050565b6000825160148361051e9190610da6565b111561052957600080fd5b7fffffffffffffffffffffffffffffffffffffffff0000000000000000000000008260208501015116905092915050565b60006040518251602084019350604067ffffffffffffffc06001830116016009828203106001810361058d576040820191505b50776745230100efcdab890098badcfe001032547600c3d2e1f06105e5565b6000838310156105de57828201519050828403935060208410156105dd576001846020036101000a03198082169150505b5b9392505050565b60005b828110156109e9576105fb8482896105ac565b855261060b8460208301896105ac565b6020860152604081850310600181036106275760808286038701535b5060408303811460018103610646576008850260208701511760208701525b5060405b60808110156106d25760408103860151603882038701511860208203870151600c830388015118187c010000000100000001000000010000000100000001000000010000000163800000008204167ffffffffefffffffefffffffefffffffefffffffefffffffefffffffefffffffe6002830216179050808288015250600c8101905061064a565b5060805b61014081101561075f57608081038601516070820387015118604082038701516018830388015118187c030000000300000003000000030000000300000003000000030000000363400000008204167ffffffffcfffffffcfffffffcfffffffcfffffffcfffffffcfffffffcfffffffc60048302161790508082880152506018810190506106d6565b508160008060005b60508110156109bb57601481046000811461079957600181146107e357600281146108205760038114610883576108bc565b6501000000000085046a01000000000000000000008604189350836f01000000000000000000000000000000860416935083650100000000008604189350635a82799992506108bc565b6a010000000000000000000085046f01000000000000000000000000000000860418935083650100000000008604189350636ed9eba192506108bc565b6a010000000000000000000085046f01000000000000000000000000000000860417935083650100000000008604169350836a010000000000000000000086046f01000000000000000000000000000000870416179350638f1bbcdc92506108bc565b6a010000000000000000000085046f0100000000000000000000000000000086041893508365010000000000860418935063ca62c1d692505b50601f770800000000000000000000000000000000000000000000008504168063ffffffe073080000000000000000000000000000000000000087041617905080840190508063ffffffff86160190508083019050807c0100000000000000000000000000000000000000000000000000000000600484028c0151040190507401000000000000000000000000000000000000000081026501000000000086041794506a0100000000000000000000633fffffff6a040000000000000000000087041663c00000006604000000000000880416170277ffffffff00ffffffff000000000000ffffffff00ffffffff861617945050600181019050610767565b5077ffffffff00ffffffff00ffffffff00ffffffff00ffffffff8386011694505050506040810190506105e8565b506c0100000000000000000000000063ffffffff821667ffffffff000000006101008404166bffffffff0000000000000000620100008504166fffffffff000000000000000000000000630100000086041673ffffffff000000000000000000000000000000006401000000008704161717171702945050505050919050565b5b60208110610aa85781518352602083610a839190610da6565b9250602082610a929190610da6565b9150602081610aa19190610d43565b9050610a6a565b60006001826020036101000a0390508019835116818551168181178652505050505050565b600060606000855185518551888888604051602001610af196959493929190610e9b565b6040516020818303038152906040529050835167ffffffffffffffff811115610b1d57610b1c610dda565b5b6040519080825280601f01601f191660200182016040528015610b4f5781602001600182028036833780820191505090505b50915083516020830182516020840160055afa925050935093915050565b600080fd5b600080fd5b600080fd5b600080fd5b600080fd5b60008083601f840112610b9c57610b9b610b77565b5b8235905067ffffffffffffffff811115610bb957610bb8610b7c565b5b602083019150836001820283011115610bd557610bd4610b81565b5b9250929050565b60008060008060008060608789031215610bf957610bf8610b6d565b5b600087013567ffffffffffffffff811115610c1757610c16610b72565b5b610c2389828a01610b86565b9650965050602087013567ffffffffffffffff811115610c4657610c45610b72565b5b610c5289828a01610b86565b9450945050604087013567ffffffffffffffff811115610c7557610c74610b72565b5b610c8189828a01610b86565b92509250509295509295509295565b60008115159050919050565b610ca581610c90565b82525050565b6000602082019050610cc06000830184610c9c565b92915050565b600061ffff82169050919050565b7f4e487b7100000000000000000000000000000000000000000000000000000000600052601160045260246000fd5b6000610d0e82610cc6565b9150610d1983610cc6565b9250828201905061ffff811115610d3357610d32610cd4565b5b92915050565b6000819050919050565b6000610d4e82610d39565b9150610d5983610d39565b9250828203905081811115610d7157610d70610cd4565b5b92915050565b7f4e487b7100000000000000000000000000000000000000000000000000000000600052603260045260246000fd5b6000610db182610d39565b9150610dbc83610d39565b9250828201905080821115610dd457610dd3610cd4565b5b92915050565b7f4e487b7100000000000000000000000000000000000000000000000000000000600052604160045260246000fd5b6000819050919050565b610e24610e1f82610d39565b610e09565b82525050565b600081519050919050565b600081905092915050565b60005b83811015610e5e578082015181840152602081019050610e43565b60008484015250505050565b6000610e7582610e2a565b610e7f8185610e35565b9350610e8f818560208601610e40565b80840191505092915050565b6000610ea78289610e13565b602082019150610eb78288610e13565b602082019150610ec78287610e13565b602082019150610ed78286610e6a565b9150610ee38285610e6a565b9150610eef8284610e6a565b915081905097965050505050505056fea26469706673582212204066a4f48a94479ce7d34e6fc2289dd304d5a46b343c0bba0f22024f27d847cd64736f6c63430008110033",
  "devdoc": {
    "details": "Implements the DNSSEC RSASHA1 algorithm.",
    "kind": "dev",
    "methods": {},
    "version": 1
  },
  "userdoc": {
    "kind": "user",
    "methods": {},
    "version": 1
  },
  "storageLayout": {
    "storage": [],
    "types": null
  }
}