{
  "address": "0x15D893B37a4bdA9a06F798cc64186bC76d6385d7",
  "abi": [
    {
      "inputs": [
        {
          "internalType": "bytes",
          "name": "key",
          "type": "bytes"
        },
        {
          "internalType": "bytes",
          "name": "data",
          "type": "bytes"
        },
        {
          "internalType": "bytes",
          "name": "sig",
          "type": "bytes"
        }
      ],
      "name": "verify",
      "outputs": [
        {
          "internalType": "bool",
          "name": "",
          "type": "bool"
        }
      ],
      "stateMutability": "view",
      "type": "function"
    }
  ],
  "transactionHash": "0x274fcde9be65518ca3489aa850baa21f8717eb4ab778aa0a619bb356c01a21d6",
  "args": [],
  "numDeployments": 1,
  "solcInputHash": "3004fb69145baf262ffd181d54fcaf95",
  "bytecode": "0x608060405234801561001057600080fd5b50610a9b806100206000396000f3fe608060405234801561001057600080fd5b506004361061002b5760003560e01c8063de8f50a114610030575b600080fd5b61004a60048036038101906100459190610692565b610060565b6040516100579190610761565b60405180910390f35b600060608060006100bf60048b8b8080601f016020809104026020016040519081016040528093929190818152602001838380828437600081840152601f19601f820116905080830192505050505050506103ea90919063ffffffff16565b60ff16905060008161ffff16146101be5761012e60058261ffff168c8c8080601f016020809104026020016040519081016040528093929190818152602001838380828437600081840152601f19601f820116905080830192505050505050506104159092919063ffffffff16565b92506101b760058261014091906107b9565b61ffff1660058361ffff168d8d905061015991906107f9565b61016391906107f9565b8c8c8080601f016020809104026020016040519081016040528093929190818152602001838380828437600081840152601f19601f820116905080830192505050505050506104159092919063ffffffff16565b9150610302565b61021660058b8b8080601f016020809104026020016040519081016040528093929190818152602001838380828437600081840152601f19601f820116905080830192505050505050506104aa90919063ffffffff16565b905061027660078261ffff168c8c8080601f016020809104026020016040519081016040528093929190818152602001838380828437600081840152601f19601f820116905080830192505050505050506104159092919063ffffffff16565b92506102ff60078261028891906107b9565b61ffff1660078361ffff168d8d90506102a191906107f9565b6102ab91906107f9565b8c8c8080601f016020809104026020016040519081016040528093929190818152602001838380828437600081840152601f19601f820116905080830192505050505050506104159092919063ffffffff16565b91505b6000606061035584868a8a8080601f016020809104026020016040519081016040528093929190818152602001838380828437600081840152601f19601f820116905080830192505050505050506104d9565b80925081935050508180156103d957506103856020825161037691906107f9565b826104f490919063ffffffff16565b60028b8b60405161039792919061086c565b602060405180830381855afa1580156103b4573d6000803e3d6000fd5b5050506040513d601f19601f820116820180604052508101906103d791906108bb565b145b955050505050509695505050505050565b60008282815181106103ff576103fe6108e8565b5b602001015160f81c60f81b60f81c905092915050565b6060835182846104259190610917565b111561043057600080fd5b60008267ffffffffffffffff81111561044c5761044b61094b565b5b6040519080825280601f01601f19166020018201604052801561047e5781602001600182028036833780820191505090505b509050600080602083019150856020880101905061049d82828761051f565b8293505050509392505050565b600082516002836104bb9190610917565b11156104c657600080fd5b61ffff8260028501015116905092915050565b600060606104e8838587610583565b91509150935093915050565b600082516020836105059190610917565b111561051057600080fd5b81602084010151905092915050565b5b6020811061055e57815183526020836105399190610917565b92506020826105489190610917565b915060208161055791906107f9565b9050610520565b60006001826020036101000a0390508019835116818551168181178652505050505050565b6000606060008551855185518888886040516020016105a796959493929190610a01565b6040516020818303038152906040529050835167ffffffffffffffff8111156105d3576105d261094b565b5b6040519080825280601f01601f1916602001820160405280156106055781602001600182028036833780820191505090505b50915083516020830182516020840160055afa925050935093915050565b600080fd5b600080fd5b600080fd5b600080fd5b600080fd5b60008083601f8401126106525761065161062d565b5b8235905067ffffffffffffffff81111561066f5761066e610632565b5b60208301915083600182028301111561068b5761068a610637565b5b9250929050565b600080600080600080606087890312156106af576106ae610623565b5b600087013567ffffffffffffffff8111156106cd576106cc610628565b5b6106d989828a0161063c565b9650965050602087013567ffffffffffffffff8111156106fc576106fb610628565b5b61070889828a0161063c565b9450945050604087013567ffffffffffffffff81111561072b5761072a610628565b5b61073789828a0161063c565b92509250509295509295509295565b60008115159050919050565b61075b81610746565b82525050565b60006020820190506107766000830184610752565b92915050565b600061ffff82169050919050565b7f4e487b7100000000000000000000000000000000000000000000000000000000600052601160045260246000fd5b60006107c48261077c565b91506107cf8361077c565b9250828201905061ffff8111156107e9576107e861078a565b5b92915050565b6000819050919050565b6000610804826107ef565b915061080f836107ef565b92508282039050818111156108275761082661078a565b5b92915050565b600081905092915050565b82818337600083830152505050565b6000610853838561082d565b9350610860838584610838565b82840190509392505050565b6000610879828486610847565b91508190509392505050565b6000819050919050565b61089881610885565b81146108a357600080fd5b50565b6000815190506108b58161088f565b92915050565b6000602082840312156108d1576108d0610623565b5b60006108df848285016108a6565b91505092915050565b7f4e487b7100000000000000000000000000000000000000000000000000000000600052603260045260246000fd5b6000610922826107ef565b915061092d836107ef565b92508282019050808211156109455761094461078a565b5b92915050565b7f4e487b7100000000000000000000000000000000000000000000000000000000600052604160045260246000fd5b6000819050919050565b610995610990826107ef565b61097a565b82525050565b600081519050919050565b60005b838110156109c45780820151818401526020810190506109a9565b60008484015250505050565b60006109db8261099b565b6109e5818561082d565b93506109f58185602086016109a6565b80840191505092915050565b6000610a0d8289610984565b602082019150610a1d8288610984565b602082019150610a2d8287610984565b602082019150610a3d82866109d0565b9150610a4982856109d0565b9150610a5582846109d0565b915081905097965050505050505056fea2646970667358221220d425833841598e79ccf78018d85debf8554e3ecd881462bc30296eba8105bf4d64736f6c63430008110033",
  "devdoc": {
    "details": "Implements the DNSSEC RSASHA256 algorithm.",
    "kind": "dev",
    "methods": {},
    "version": 1
  },
  "userdoc": {
    "kind": "user",
    "methods": {},
    "version": 1
  },
  "storageLayout": {
    "storage": [],
    "types": null
  }
}