{
  "address": "0x01D9570eF525748d42179cE1A12b276D1C6C65a0",
  "abi": [
    {
      "inputs": [
        {
          "internalType": "bytes",
          "name": "name",
          "type": "bytes"
        }
      ],
      "name": "isPublicSuffix",
      "outputs": [
        {
          "internalType": "bool",
          "name": "",
          "type": "bool"
        }
      ],
      "stateMutability": "view",
      "type": "function"
    }
  ],
  "transactionHash": "0x1c721fec0d84129b2577a9ebb46721b7348af7c21b2191c4f46d83348e0da83d",
  "args": [],
  "numDeployments": 1,
  "solcInputHash": "3004fb69145baf262ffd181d54fcaf95",
  "bytecode": "0x608060405234801561001057600080fd5b5061032d806100206000396000f3fe608060405234801561001057600080fd5b506004361061002b5760003560e01c80634f89059e14610030575b600080fd5b61004a600480360381019061004591906101d8565b610060565b6040516100579190610240565b60405180910390f35b6000806100bb600085858080601f016020809104026020016040519081016040528093929190818152602001838380828437600081840152601f19601f8201169050808301925050505050505061013e90919063ffffffff16565b60ff169050600081118015610135575060006101306001836100dd9190610294565b86868080601f016020809104026020016040519081016040528093929190818152602001838380828437600081840152601f19601f8201169050808301925050505050505061013e90919063ffffffff16565b60ff16145b91505092915050565b6000828281518110610153576101526102c8565b5b602001015160f81c60f81b60f81c905092915050565b600080fd5b600080fd5b600080fd5b600080fd5b600080fd5b60008083601f84011261019857610197610173565b5b8235905067ffffffffffffffff8111156101b5576101b4610178565b5b6020830191508360018202830111156101d1576101d061017d565b5b9250929050565b600080602083850312156101ef576101ee610169565b5b600083013567ffffffffffffffff81111561020d5761020c61016e565b5b61021985828601610182565b92509250509250929050565b60008115159050919050565b61023a81610225565b82525050565b60006020820190506102556000830184610231565b92915050565b6000819050919050565b7f4e487b7100000000000000000000000000000000000000000000000000000000600052601160045260246000fd5b600061029f8261025b565b91506102aa8361025b565b92508282019050808211156102c2576102c1610265565b5b92915050565b7f4e487b7100000000000000000000000000000000000000000000000000000000600052603260045260246000fdfea2646970667358221220186af82407f1de0f768ba6700740ff74358f4890efc73a551fdd699737f6861764736f6c63430008110033",
  "devdoc": {
    "details": "A public suffix list that treats all TLDs as public suffixes.",
    "kind": "dev",
    "methods": {},
    "version": 1
  },
  "userdoc": {
    "kind": "user",
    "methods": {},
    "version": 1
  },
  "storageLayout": {
    "storage": [],
    "types": null
  }
}